:020000040800F2
:1000000000200020F92900089F1F0008AD1F0008EC
:1000100000000000000000000000000000000000E0
:10002000000000000000000000000000BB1F0008EE
:100030000000000000000000C51F0008D11F0008DC
:10004000492A000800000000492A0008492A00083F
:10005000492A0008492A0008492A0008492A0008B4
:1000600000000000492A0008492A0008492A00081F
:10007000492A0008492A0008492A0008000000000F
:10008000492A00080000000000000000492A00087A
:1000900000000000492A0008492A0008492A0008EF
:1000A000492A0008492A0008492A0008BD200008FA
:0800B000C1220008000000005D
:1000B80010B5064C2378002B07D1054B002B02D036
:1000C800044800E000BF0123237010BD0C0000208D
:1000D80000000000DC580008044B10B5002B03D0CA
:1000E8000349044800E000BF10BDC04600000000FE
:1000F80010000020DC580008002243088B4274D30B
:1001080003098B425FD3030A8B4244D3030B8B4210
:1001180028D3030C8B420DD3FF22090212BA030C19
:100128008B4202D31212090265D0030B8B4219D3FA
:1001380000E0090AC30B8B4201D3CB03C01A52411A
:10014800830B8B4201D38B03C01A5241430B8B4262
:1001580001D34B03C01A5241030B8B4201D30B034B
:10016800C01A5241C30A8B4201D3CB02C01A524172
:10017800830A8B4201D38B02C01A5241430A8B4235
:1001880001D34B02C01A5241030A8B4201D30B021E
:10019800C01A5241CDD2C3098B4201D3CB01C01A38
:1001A800524183098B4201D38B01C01A5241430942
:1001B8008B4201D34B01C01A524103098B4201D330
:1001C8000B01C01A5241C3088B4201D3CB00C01A9D
:1001D800524183088B4201D38B00C01A5241430815
:1001E8008B4201D34B00C01A5241411A00D201463A
:1001F800524110467047FFE701B5002000F006F8AD
:1002080002BDC0460029F7D076E770477047C04660
:1002180080B582B000AF78600A00FB1C1A7006E057
:100228007B680A211800FFF767FF03007B60FB1C4F
:100238001B78FA1C591E1170002BF1D17B680A211A
:100248001800FFF7DFFF0B00DBB21800BD4602B055
:1002580080BD000090B585B000AF04000800110013
:100268003B60FB1D221C1A703B1D021C1A80BB1D23
:100278000A1C1A700F23FB1800221A70DB4B042289
:100288001A70DB4BFA221A803B1D1B88D94A93420D
:1002980000D107E3D74A934201DD00F0B5FBD64A07
:1002A800934200D16DE2D44A934201DD00F0ACFBE9
:1002B800D24A934200D132E1D04A934200DDA3E30F
:1002C800CF4A934203D0CF4A934252D09CE3BB1DFE
:1002D8001B78022B2CD13B6A48221A703B6A0133E7
:1002E80049221A703B6A0233C74A12781A703B6A6D
:1002F80003337C221A70C54B18783B6A04331A0002
:10030800012102F0EBFA3B6A05337C221A70BF4BDD
:100318001A783B6A06331900100002F017FB3B6A93
:100328000E333B221A700F23FB180F221A706DE34D
:100338002423FB181B78012B00D067E33B6A572264
:100348001A703B6A013347221A703B6A02333F2214
:100358001A703B6A03333B221A700F23FB180422DE
:100368001A703B6A48221A703B6A013349221A7094
:100378004CE3BB1D1B78022B1FD13B6A4C221A7021
:100388003B6A013343221A70A14B1A783B6A023345
:1003980030210A43D2B21A709E4B1A783B6A033353
:1003A80030210A43D2B21A703B6A04333B221A70D6
:1003B8000F23FB1805221A702EE3BB1D1B78042B94
:1003C80000D08BE03B6802331B78302B25D03B688C
:1003D80002331B78312B20D02423FB181B78012BE8
:1003E80000D015E33B6A57221A703B6A0133472253
:1003F8001A703B6A02333F221A703B6A03333B226E
:100408001A700F23FB1804221A703B6A4C221A70C8
:100418003B6A013343221A70FAE23B6803331B78C4
:10042800302B25D03B6803331B78312B20D0242375
:10043800FB181B78012B00D0ECE23B6A57221A709C
:100448003B6A013347221A703B6A02333F221A7013
:100458003B6A03333B221A700F23FB1804221A70DD
:100468003B6A4C221A703B6A013343221A70D1E26C
:100478003B6802331B7801221340DAB2644B1A70CE
:100488003B6803331B7801221340DAB2614B1A70C0
:100498002423FB181B78012B00D0BDE23B6A4C22B9
:1004A8001A703B6A013343221A70594B1A783B6A17
:1004B800023330210A43D2B21A70564B1A783B6A7B
:1004C800033330210A43D2B21A703B6A04333B2209
:1004D8001A700F23FB1805221A709DE22423FB18BB
:1004E8001B78012B00D097E23B6A57221A703B6AAF
:1004F800013347221A703B6A02333F221A703B6A63
:1005080003333B221A700F23FB1804221A703B6A2C
:100518004C221A703B6A013343221A707CE2BB1DDD
:100528001B78022B17D13B6A4D221A703B6A0133A4
:1005380052221A70384B1A783B6A023330210A4328
:10054800D2B21A703B6A03333B221A700F23FB188E
:1005580004221A7062E2BB1D1B78032B5ED13B6834
:1005680002331B78302B20D12B4B00221A70242306
:10057800FB181B78012B00D050E23B6A4D221A7001
:100588003B6A013352221A70234B1A783B6A0233B2
:1005980030210A43D2B21A703B6A03333B221A70E5
:1005A8000F23FB1804221A7038E22423FB181B7847
:1005B800012B00D032E23B6A57221A703B6A0133A2
:1005C80047221A703B6A02333F221A703B6A033390
:1005D8003B221A700F23FB1804221A703B6A4D2223
:1005E8001A703B6A013352221A7017E26006002023
:1005F8005E0600205356000052530000524D000082
:1006080049480000434C0000C8080020C7080020E3
:10061800E0080020E1080020DC080020BB1D1B7852
:10062800072B00D08BE03B6802331B78312B65D158
:10063800E14BBB603B6803331A78BB681B789A426E
:100648003BD13B6804331A78BB6801331B789A4264
:1006580033D13B6805331A78BB6802331B789A425A
:100668002BD13B6806331A78BB6803331B789A4250
:1006780023D1D24B00221A70D14BC8221A802423CE
:10068800FB181B78012B00D07AE03B6A4D221A70C8
:100698003B6A013352221A70C84B1A783B6A0233FC
:1006A80030210A43D2B21A703B6A03333B221A70D4
:1006B8000F23FB1804221A7062E02423FB181B780E
:1006C800012B00D0AAE13B6A57221A703B6A01331A
:1006D80047221A703B6A02333F221A703B6A03337F
:1006E8003B221A700F23FB1804221A703B6A4D2212
:1006F8001A703B6A013352221A708FE12423FB18C7
:100708001B78012B00D089E13B6A57221A703B6A9B
:10071800013347221A703B6A02333F221A703B6A40
:1007280003333B221A700F23FB1804221A703B6A0A
:100738004D221A703B6A013352221A706EE124234B
:10074800FB181B78012B00D068E13B6A57221A700E
:100758003B6A013347221A703B6A02333F221A7000
:100768003B6A03333B221A700F23FB1804221A70CA
:100778003B6A4D221A703B6A013352221A704DE1CE
:100788004CE1BB1D1B78022B6BD13B6A53221A70BC
:100798003B6A013352221A703B6A0233894A127843
:1007A8001A703B6A0333874A52781A703B6A0433DB
:1007B800844A92781A703B6A0533824AD2781A7052
:1007C8003B6A06337C221A703B6A07337D4A1279EA
:1007D8001A703B6A08337B4A52791A703B6A0933AC
:1007E800784A92791A703B6A0A33764AD2791A7033
:1007F8003B6A0B337C221A703B6A0C33714A127ABB
:100808001A703B6A0D336F4A527A1A703B6A0E337C
:100818006C4A927A1A703B6A0F336A4AD27A1A7013
:100828003B6A10337C221A703B6A1133654A127B8B
:100838001A703B6A1233634A527B1A703B6A13334D
:10084800604A927B1A703B6A14335E4AD27B1A70F4
:100858003B6A15333B221A700F23FB1816221A70B5
:10086800DEE02423FB181B78012B00D0D8E03B6A7C
:1008780057221A703B6A013347221A703B6A0233C7
:100888003F221A703B6A03333B221A700F23FB186E
:1008980004221A703B6A53221A703B6A01335222AF
:1008A8001A70BDE0BB1D1B78032B00D08CE03B68A1
:1008B80002331B784D2B5FD13B6A56221A703B6A74
:1008C800013353221A703B6A02334D221A700221F7
:1008D8000120FFF79DFC030019003B6A0333302217
:1008E8000A43D2B21A7001210120FFF791FC0300DC
:1008F80019003B6A043330220A43D2B21A7000212D
:100908000120FFF785FC030019003B6A05333022FC
:100918000A43D2B21A703B6A06332E221A70022199
:100928000020FFF775FC030019003B6A07333022EB
:100938000A43D2B21A7001210020FFF769FC0300B4
:1009480019003B6A083330220A43D2B21A700021D8
:100958000020FFF75DFC030019003B6A09333022D1
:100968000A43D2B21A703B6A0A333B221A700F2329
:10097800FB180B221A7055E02423FB181B78012B57
:1009880050D13B6A57221A703B6A013347221A70CA
:100998003B6A02333F221A703B6A03333B221A70C8
:1009A8000F23FB1804221A703B6A56221A703B6AFE
:1009B800013353221A7035E0F4580008DC0800208F
:1009C800DE080020CC0800202423FB181B78012B0C
:1009D80028D13B6A57221A703B6A013347221A70A2
:1009E8003B6A02333F221A703B6A03333B221A7078
:1009F8000F23FB1804221A703B6A56221A703B6AAE
:100A0800013353221A700DE0C0460CE0C0460AE0DC
:100A1800C04608E0C04606E0C04604E0C04602E022
:100A2800C04600E0C0460F22BB181B78002B1CD024
:100A3800114B1B78002B09D0BB181B78BA18591C0E
:100A480011701A003B6A9B180A221A700B4B1B780C
:100A5800002B0AD00F22BB181B78BA18591C11702A
:100A68001A003B6A9B180D221A700F23FB181B787B
:100A78001800BD4605B090BDE0080020E108002040
:100A880080B586B000AF7860EFF31083BB60BB68B9
:100A98007B610123FB60FB6883F31088C0467B6899
:100AA8001B6880221A437B681A607B693B613B693B
:100AB80083F31088C046C046BD4606B080BD80B5E9
:100AC80082B000AF78600A00FB1C1A70FB1C1A7811
:100AD8007B689A62C046BD4602B080BD80B582B0D0
:100AE80000AFFB1D00221A7021E0FB1D1B781800C7
:100AF80000F028F8FB1D1A781149802013009B018B
:100B08009B185B00CB181B1800221A70FB1D1A7863
:100B18000B49812013009B019B185B00CB181B1805
:100B2800FF221A70FB1D1A78FB1D01321A70FB1D7B
:100B38001B78092BD9D9C046C046BD4602B080BD36
:100B48002800002090B585B000AF0200FB1D1A7088
:100B5800FB1D1B78092B1DD80F23FB1800221A70C8
:100B680011E0FB1D1A780F243B1919780B48130064
:100B78009B019B185B00C31800225A543B191A7832
:100B88003B1901321A700F23FB181B785BB2002B3C
:100B9800E7DA00E0C046BD4605B090BD2800002059
:100BA80080B582B000AFFB1D00221A70FB1D002229
:100BB8001A7009E0FB1D1B78084A0021D154FB1D5F
:100BC8001A78FB1D01321A70FB1D1B785BB2002BD3
:100BD800F0DAC046C046BD4602B080BD40050020E0
:100BE80080B500AFFFF77AFFFFF7DAFF074B002267
:100BF8001A70074B00221A70064B00221A70064B17
:100C080000221A80C046BD4680BDC0463C05002073
:100C18003D050020C0050020C205002090B589B020
:100C280000AF786039603B68FB610023BB6100233B
:100C38007B6100233B610023FB607CE07A68BB6931
:100C4800D3181B781F2B04D87A68BB69D3183022B5
:100C58001A707A68BB69D3181B787E2B04D97A6816
:100C6800BB69D31830221A707A68BB69D3181B780D
:100C78003B2B5AD1354B1B78092B51D8334B1B785A
:100C88001800334A802103009B011B185B00D3180E
:100C98005B181B78002B45D13A697B69D31A01335D
:100CA800FB60FB68802B3DD8284B1B781A0013008B
:100CB8009B019B185B00264A98187A687B69D318B1
:100CC800FA68190004F0FCFDFB68DBB21F4A1278D1
:100CD8001000013BDCB21E4A812103009B011B1856
:100CE8005B00D3185B18221C1A70184B1B7818006D
:100CF800174A802103009B011B185B00D3185B185F
:100D080001221A70114B1B780133DAB20F4B1A709B
:100D18000E4B1B78092B05D90C4B00221A7001E0E9
:100D2800FFF75EFF3B6901337B61BB690133BB6140
:100D38003B6901333B61FB695A1EFA61002B00D005
:100D48007CE7C046C046BD4609B090BD3C050020C2
:100D58002800002090B585B002AFBB1D00221A7094
:100D6800FB1D00221A703B1D00221A80644B1B7861
:100D7800012B00D1BFE0634B1B78092B00D9B7E0EA
:100D8800604B1B781800604A802103009B011B18E8
:100D98005B00D3185B181B78012B00D086E0594BF9
:100DA8001B781C00BA1D5849812023009B011B1980
:100DB8005B00CB181B181B781370524B1B7819005B
:100DC800514A0B009B015B185B009B5C1B021AB22B
:100DD8004C4B1B7818004C4903009B011B185B0007
:100DE800CB1801331B781BB213431AB23B1D1A8070
:100DF800BB1D1B78FF2B1BD0BB1D1B78012B17D9E4
:100E0800404B1B781A0013009B019B185B003E4A5D
:100E18009818FC1DBB1D1A783B1D198801230193E6
:100E28003A4B009303000020FFF714FA03002370E5
:100E3800344B1B781800FFF785FE324B1B781800DF
:100E4800314A802103009B011B185B00D3185B18F3
:100E580000221A702B4B1B7818002B4A81210300A3
:100E68009B011B185B00D3185B18FF221A70FB1D2F
:100E78001B78002B0CD0224B01221A70244BFA222B
:100E880092001A80FB1D1B789BB2180000F044F8F2
:100E98001C4B1B780133DAB21A4B1A70194B1B78AA
:100EA800092B29D9174B00221A7025E0154B1A78FF
:100EB800184B1B789A421FD0124B1B781800124A05
:100EC800802103009B011B185B00D3185B181B785B
:100ED800002B11D10B4B1B780133DAB2094B1A7076
:100EE800084B1B78092B07D9064B00221A7003E020
:100EF800FFF776FE00E0C046BD4603B090BDC04691
:100F0800C00500203D0500202800002040050020E5
:100F1800C20500203C05002080B582B000AF020069
:100F2800BB1D1A80BB1D1B88DAB2144B1A70134BF9
:100F38001B781A001249134B180004F0C1FC124B1D
:100F480000221A70114B01221A70114B0022012144
:100F5800180003F05CFB0B4B1B780E4A19001000BD
:100F6800FFF7ADFD0C4B02221A700A4B1800FFF771
:100F780087FDC046BD4602B080BDC046F8070020C8
:100F880040050020300700202F070020F907002027
:100F98000004005000380140FA07002080B582B0F4
:100FA80000AF0200FB1D1A70FB1D1B787F2B09D8B0
:100FB800FB1D1B781A001F231A40044B0121914086
:100FC8000A001A60C046BD4602B080BD00E100E0DC
:100FD80090B583B000AF02003960FB1D1A70FB1D8D
:100FE8001B787F2B28D82F4AFB1D1B785BB29B08E8
:100FF800C0339B009B58FA1D1278110003220A4047
:10100800D200FF2191400A00D2431A4011003B68E8
:101018009B01FF221A40FB1D1B7818000323034085
:10102800DB009A401F48FB1D1B785BB29B080A43F4
:10103800C0339B001A5031E01B4AFB1D1B78190076
:101048000F230B40083B9B0806339B00D31804333F
:101058001B68FA1D1278110003220A40D200FF21F2
:1010680091400A00D2431A4011003B689B01FF22BD
:101078001A40FB1D1B78180003230340DB009A402D
:101088000948FB1D1B781C000F232340083B9B08C5
:101098000A4306339B00C31804331A60C046BD4692
:1010A80003B090BD00E100E000ED00E080B582B043
:1010B80000AF78607B681B68034A1A407B681A6037
:1010C800C046BD4602B080BDFFFFFFDF80B586B0D9
:1010D80000AF78603960EFF31083BB60BB687B6159
:1010E8000123FB60FB6883F31088C0467B689B681C
:1010F800DB00DA083B685B071A437B689A607B6908
:101108003B613B6983F31088C046C046BD4606B0C4
:1011180080BD000080B586B000AF78603960EFF31D
:101128001083BB60BB687B610123FB60FB6883F3B2
:101138001088C0467B689B68084A1A403B685B0673
:101148001A437B689A607B693B613B6983F310882B
:10115800C046C046BD4606B080BDC046FFFFFFF191
:1011680080B582B000AF78607B685B68074A1A4038
:101178007B685A607B689B682A2293431A007B68C5
:101188009A60C046BD4602B080BDC046FFB7FFFFAB
:1011980080B586B000AF7860EFF31083BB60BB68A2
:1011A8007B610123FB60FB6883F31088C0467B6882
:1011B8001B6820221A437B681A607B693B613B6984
:1011C80083F31088C046C046BD4606B080BD80B5D2
:1011D80086B000AF7860EFF31083BB60BB687B61BB
:1011E8000123FB60FB6883F31088C0467B689B681B
:1011F80001221A437B689A607B693B613B6983F3F0
:101208001088C046C046BD4606B080BD80B584B0D3
:1012180000AF7860074BD96B064B7A680A43DA63EC
:10122800044BDB6B7A681340FB60FB68C046BD4625
:1012380004B080BD0010024080B584B000AF786073
:10124800074B196C064B7A680A431A64044B1B6CEB
:101258007A681340FB60FB68C046BD4604B080BD99
:101268000010024080B584B000AF7860074B596B1E
:10127800064B7A680A435A63044B5B6B7A681340DF
:10128800FB60FB68C046BD4604B080BD001002404C
:1012980080B500AF2D4B00221A802D4BFA22520048
:1012A8001A802C4B00221A702B4B00221A702B4BE1
:1012B800C8220021180004F0D7FA294B00221A701E
:1012C800284B00221A70284B00221A70274B002244
:1012D8001A70274BC8220021180004F0C5FA254BC4
:1012E80000221A70244B00221A70244B00221A7014
:1012F800234B00221A70234BC8220021180004F047
:10130800B3FA214B00221A70204B00221A70204B8E
:1013180000221A701F4B00221A701F4B00221A70ED
:101328001E4B10223021180004F09EFA1C4B01229B
:101338001A701C4B00221A801B4B00221A701B4B80
:1013480001221A70C046BD4680BDC0465C0600201A
:101358005E0600206006002061060020640600206A
:101368002C0700202D0700202E0700202F07002023
:1013780030070020F8070020F9070020FA070020AE
:10138800FB070020FC070020C4080020C508002037
:10139800C6080020C7080020C8080020CC08002084
:1013A800DC080020DE080020E0080020E10800201A
:1013B80090B589B000AF0C243B19180014231A000B
:1013C800002104F051FA214B5A6B204B01210A43AA
:1013D8005A631E4B5B6B01221340BB60BB681B4BFF
:1013E8005A6B1A4B02210A435A63184B5B6B022251
:1013F80013407B607B68154B5A6B144B04210A43DE
:101408005A63124B5B6B042213403B603B6880239A
:101418009B000F480022190003F0F9F83B198022BD
:1014280092001A603B1901225A603B1900229A6007
:101438003B190022DA603B19054A1900100002F036
:1014480065FFC046BD4609B090BDC04600100240C9
:101458000004005090B589B000AF0C243B19180067
:1014680014231A00002104F0FFF9864B5A6B854BB0
:1014780001210A435A63834B5B6B01221340BB6013
:10148800BB68804B5A6B7F4B02210A435A637D4BE2
:101498005B6B022213407B607B687A4B5A6B794BFB
:1014A80004210A435A63774B5B6B042213403B6069
:1014B8003B68754B01220121180003F0A8F83B197D
:1014C80001221A603B1901225A603B1900229A60D6
:1014D8003B190222DA603B196B4A1900100002F02E
:1014E80015FF6A4B1B78042B27D13B1903221A607E
:1014F8003B1900225A603B1901229A603B190022CD
:10150800DA603A19A023DB051100180002F0FEFE8C
:1015180021007B1810221A607B1800225A607B1861
:1015280000229A607B180322DA607A18A023DB0570
:101538001100180002F0EAFE13E00C217B181322B8
:101548001A607B1800225A607B1801229A607B1867
:101558000022DA607A18A023DB051100180002F0D7
:10156800D5FEA023DB0501222021180003F04FF847
:101578000C243B1920221A603B1901225A603B199E
:1015880000229A603B190022DA603A19A023DB0591
:101598001100180002F0BAFE3B1940221A603B19EC
:1015A80000225A603B1901229A603B190022DA6036
:1015B8003A19A023DB051100180002F0A7FE334BEF
:1015C8001B78042B11D13B1903225A603B190022C6
:1015D8009A603B19802212011A603A19A023DB0590
:1015E8001100180002F092FE14E00C217B188022F2
:1015F80012011A607B1800225A607B1801229A6037
:101608007B180022DA607A18A023DB051100180085
:1016180002F07CFE1D4B1B78042B12D10C217B1889
:1016280003225A607B1800229A607B18802252019C
:101638001A607A18A023DB051100180002F066FE74
:101648001CE080235901A023DB050122180002F0C9
:10165800DEFF0C217B18802252011A607B180122C0
:101668005A607B1800229A607B180222DA607A1886
:10167800A023DB051100180002F048FEC046BD4655
:1016880009B090BD0010024000040050C7080020B7
:1016980080B500AF0B4B0C4A1A600A4B02225A6005
:1016A800084B0A4ADA60074B084A9A60054B18004B
:1016B80002F0E6FF031E01D000F0D0FAC046BD4696
:1016C80080BDC0464C06002000300040FF0F0000DF
:1016D80080B584B000AF3B1D18000C231A00002110
:1016E80004F0C2F8324B334A1A60314B802212069A
:1016F8005A602F4B00229A602D4B0022DA602C4B47
:1017080000221A612A4B04225A61294B00221A76B8
:10171800274B00225A76264B01229A76244B012227
:10172800DA61234B202200219954214B00225A626E
:101738001F4B8022D2009A621D4B2C220021995403
:101748001B4B00221A631A4B07225A63184B0722B5
:101758009A63174B3C2200219954154B0022DA64F6
:10176800134B180001F082FB031E01D000F076FA3B
:101778000F4B180002F032FA031E01D000F06EFA87
:101788003B1D0D4A1A603B1D00225A603B1D00227A
:101798009A603A1D064B1100180001F089FE031EDD
:1017A80001D000F05BFAC046BD4604B080BDC0461B
:1017B800C4050020002401408000001C90B58FB0B3
:1017C80000AF18243B19180020231A00002104F048
:1017D8004BF83B00180018231A00002104F044F8C5
:1017E8008023DB011800FFF727FD0220FFF73AFDF1
:1017F8003B0080221A603B0002225A603B00032211
:101808009A603B000022DA603B0001221A613B002B
:1018180000225A613B00314A1900100003F025FDEF
:101828003B0040221A603B0002225A603B00032220
:101838009A603B000022DA603B0001221A613B00FB
:1018480000225A613B00254A1900100003F00DFDE3
:1018580000211B20FFF7BCFB1B20FFF79FFB3B1958
:1018680000221A603B19E12252025A6021007B18BB
:1018780000229A607B180022DA607B1800221A6125
:101888007B180C225A617B1800229A617B1800226F
:10189800DA617B18124A1900100003F073FF104B2D
:1018A80000211800FFF712FC0D4B00211800FFF76C
:1018B80031FC0B4B1800FFF7F9FB094B1800FFF739
:1018C8004FFC074B1800FFF763FC054B1800FFF7A8
:1018D8007EFCC046BD460FB090BDC0460004005017
:1018E8000038014090B58FB000AF18243B1918009C
:1018F80020231A00002103F0B7FF3B00180018232B
:101908001A00002103F0B0FF80239B021800FFF7A4
:101918007DFC0120FFF7A6FC3B0004221A603B0077
:1019280002225A603B0003229A603B000022DA60E0
:101938003B0001221A613B0001225A613A00A023B0
:10194800DB051100180003F090FC3B0008221A6028
:101958003B0002225A603B0003229A603B000022AF
:10196800DA603B0001221A613B0001225A613A0009
:10197800A023DB051100180003F077FC01211C20CF
:10198800FFF726FB1C20FFF709FB3B1900221A6012
:101998003B19E12252025A6021007B1800229A600A
:1019A8007B180022DA607B1800221A617B180C224F
:1019B8005A617B1800229A617B180022DA617B1831
:1019C800114A1900100003F0DDFE0F4B002118002A
:1019D800FFF77CFB0C4B00211800FFF79BFB0A4B21
:1019E8001800FFF763FB084B1800FFF7B9FB064B1D
:1019F8001800FFF7CDFB044B1800FFF7E8FBC046C3
:101A0800BD460FB090BDC0460044004080B582B0CE
:101A180000AF78607B681B6801221A437B681A60F4
:101A2800C046BD4602B080BD90B58BB000AF3B004C
:101A3800180002F0B9FB3B009B693B623A6A8023BD
:101A48005B04134024D002F091FA02F0B3FA3B0091
:101A580004221A603B009B690F4A1A403B009A61B6
:101A68001F23FC183B00180002F01AFB0300237028
:101A78000A4B7B62C0467B6A5A1E7A62002BFAD1F7
:101A880080239B00064A1900100002F0DDFDEFE7F5
:101A9800C046BD460BB090BDFFFFFFFE818909001F
:101AA8000004005080B500AF00F0CCFFFFF7F0FB5A
:101AB800FFF77EFC00F074F8FFF7B6FFFFF790F829
:101AC800FFF7E6FD322001F043F800F01DFD0300AA
:101AD8001A00294B1A70FFF7BDFC274B1B78042B03
:101AE80003D1264B38221A7005E000F079FD030077
:101AF8001A00224B1A70FFF761FEFFF7F3FE204B26
:101B08001800FFF783FF1F4B1800FFF77FFF1E4BDE
:101B18001B78002B06D01D4B180002F003FE1A4B51
:101B280000221A701A4B1A881A4B1B889A421ED325
:101B3800174B00221A80184B1B78002B0DD0164B20
:101B48001B78013BDAB2144B1A70134B1B78002B2D
:101B580003D1104BFA2252001A8080239B000F4AAF
:101B68001900100002F070FD074B01221A7000F0F6
:101B7800CBFDFFF7EFF8CAE7C7080020C808002028
:101B88000044004000380140C60800204C060020F0
:101B98005C0600205E06002060060020000400505D
:101BA80090B593B000AF14243B19180034231A00E1
:101BB800002103F059FE3B1D180010231A000021D4
:101BC80003F052FE80239B00180002F0BBFD3B1976
:101BD80002221A603B1980225200DA6021007B1829
:101BE80000221A617B1840225A617B1801229A61EF
:101BF8007B180222DA617B1802221A627B18002203
:101C08005A627B1808229A627B1880229202DA6252
:101C18007B18802292051A637B18180002F0D2FD07
:101C2800031E01D000F01AF83B1D07221A603B1D65
:101C380002225A603B1D00229A603B1D0022DA6096
:101C48003B1D0221180003F0CDF8031E01D000F05F
:101C580005F8C046BD4613B090BD000080B582B0FF
:101C680000AF72B6C04680239B000A4800221900C4
:101C780002F0CDFC084B7B60C0467B685A1E7A6038
:101C8800002BFAD180239B00024A1900100002F0B1
:101C9800DBFCEFE700040050C0C4040080B582B04C
:101CA80000AF0F4B1A6C0E4B01210A431A640C4B00
:101CB8001B6C012213407B607B68094BDA6B084B75
:101CC800802149050A43DA63054BDA6B80235B05FB
:101CD80013403B603B68C046BD4602B080BDC0466D
:101CE8000010024090B58BB000AF786014243B1907
:101CF800180014231A00002103F0B6FD7B681B6846
:101D0800184A934229D1184B1A6C174B8021490362
:101D18000A431A64144B1A6C80235B0313403B611B
:101D28003B69114B5A6B104B01210A435A630E4B06
:101D38005B6B01221340FB60FB683B1980221A6031
:101D48003B1903225A603B1900229A603A19A023D2
:101D5800DB051100180002F0D9FAC046BD460BB0E9
:101D680090BDC046002401400010024080B500AF7D
:101D7800BFF34F8FC046044B044ADA60BFF34F8F5E
:101D8800C046C046FDE7C04600ED00E00400FA0585
:101D980080B582B000AF78607B68DB6902221340AF
:101DA800022B01D1012300E000231800BD4602B038
:101DB80080BD80B582B000AF78607B68DB690422A3
:101DC8001340042B01D1012300E000231800BD4675
:101DD80002B080BD80B582B000AF78607B68DB69F7
:101DE80008221340082B01D1012300E0002318002A
:101DF800BD4602B080BD80B582B000AF78607B6818
:101E0800DB6920221340202B01D1012300E00023AD
:101E18001800BD4602B080BD80B582B000AF7860C2
:101E28007B68DB6980221340802B01D1012300E00D
:101E380000231800BD4602B080BD80B582B000AF57
:101E480078607B68DA6980239B011A4080239B01B4
:101E58009A4201D1012300E000231800BD4602B0D8
:101E680080BD80B582B000AF78607B6802221A62BC
:101E7800C046BD4602B080BD80B582B000AF786074
:101E88007B6804221A62C046BD4602B080BD80B598
:101E980082B000AF78607B6808221A62C046BD46EF
:101EA80002B080BD80B582B000AF78607B688022C8
:101EB80092011A62C046BD4602B080BD80B586B0A8
:101EC80000AF7860EFF31083BB60BB687B610123D0
:101ED800FB60FB6883F31088C0467B681B68802220
:101EE80093431A007B681A607B693B613B6983F303
:101EF8001088C046C046BD4606B080BD80B582B0D9
:101F080000AF78607B681B6820221340202B01D12A
:101F1800012300E000231800BD4602B080BD80B553
:101F280082B000AF78607B681B6880221340802BEA
:101F380001D1012300E000231800BD4602B080BD96
:101F480080B582B000AF78607B689B68012213403F
:101F5800012B01D1012300E000231800BD4602B087
:101F680080BD80B582B000AF78607B685B6ADBB209
:101F78001800BD4602B080BD80B582B000AF786061
:101F88000A00FB1C1A70FB1C1A787B689A62C04610
:101F9800BD4602B080BD80B500AFFFF75FFEC0460A
:101FA800BD4680BD80B500AFFFF758FEC046BD46B0
:101FB80080BD80B500AFC046BD4680BD80B500AFCE
:101FC800C046BD4680BD000080B500AF00F0A4FD4E
:101FD8002D4B1B8801339AB22B4B1A802B4B1B7845
:101FE800002B15D0294B1B78013BDAB2274B1A700E
:101FF800264B1B78002B0BD1002000F055FC244BFE
:1020080000221A70234B00221A70234B00221A70E8
:10201800224B1B78002B12D0204B1B78013BDAB2E5
:102028001E4B1A701D4B1B78002B08D11C4B01222C
:102038000121180002F0EBFA1A4B00221A701A4B11
:102048001B88002B0BD0184B1B88013B9AB2164BF0
:102058001A80154B1B88002B01D1FFF787FE134B05
:102068001B88002B0CD0114B1B88013B9AB20F4BDD
:102078001A800E4B1B88002B02D10D4B00221A70C0
:10208800C046BD4680BDC0465C0600202C07002027
:102098002D0700202E07002061060020FA070020E7
:1020A80000040050F9070020DE080020C2050020C7
:1020B800C005002090B583B000AFFB1D00221A7048
:1020C8006F4B1800FFF72BFF031E33D06C4B180023
:1020D800FFF7A2FE031E2DD06A4B1B78C62B05D82E
:1020E800684B1B780133DAB2664B1A70654B1A7865
:1020F800654B1B789A420AD3614B1800FFF7DEFE46
:10210800624B00221A70624B00221A8012E0614B67
:1021180000220121180002F07AFA5A4B1B781A00A3
:102128005D4B9B5C564A19001000FFF725FF5B4B7F
:1021380002221A70524B1800FFF702FF031E33D019
:102148004F4B1800FFF735FE031E06D04C4B180006
:10215800FFF792FE082000F0A7FB494B1800FFF795
:1021680017FE031E06D0464B1800FFF77AFE09201B
:1021780000F09AFB424B1800FFF72CFE031E06D016
:102188003F4B1800FFF783FE0A2000F08DFB3C4B05
:102198001800FFF752FE031E06D0394B1800FFF750
:1021A80081FE0B2000F080FB354B1800FFF723FE63
:1021B800031E61D0324B1800FFF7A0FE031E5BD050
:1021C800FC1D2F4B1800FFF7CCFE03002370344B87
:1021D8001B78002B4DD1FB1D1B78402B05D1314BB3
:1021E80000221A70304B01221A702E4B1B78012BDB
:1021F80008D12E4B1B78FA1D12789A4202D02A4B2E
:1022080000221A70274B1B78C72B35D8284B02227F
:102218001A70244B1B781900264BFA1D12785A5451
:10222800204B1B780133DAB21E4B1A70FB1D1B784A
:102238000D2B21D11C4B1B78002B0DD01C4B0022E1
:102248001A70194B00221A70164B1A78144B1A7010
:10225800144B00221A700FE0154B00221A70124B13
:1022680000221A700E4B00221A700E4B00221A70B0
:1022780002E0012000F018FBC046BD4603B090BD47
:10228800003801402F070020F8070020C005002073
:10229800C20500200004005030070020FA07002083
:1022A8002E070020610600202D070020C808002006
:1022B8002C0700206406002090B583B000AFFB1DFA
:1022C80000221A704B4B1800FFF729FE031E27D077
:1022D800484B1800FFF7A0FD031E21D0464B1B7882
:1022E800C62B05D8444B1B780133DAB2424B1A701F
:1022F800414B1A78414B1B789A4207D33D4B180043
:10230800FFF7DCFD3E4B00221A7009E03A4B1B78C0
:102318001A003C4B9B5C374A19001000FFF72CFE53
:10232800344B1800FFF70CFE031E33D0314B180056
:10233800FFF73FFD031E06D02E4B1800FFF79CFD4C
:102348000C2000F0B1FA2B4B1800FFF721FD031EFB
:1023580006D0284B1800FFF784FD0D2000F0A4FAE2
:10236800244B1800FFF736FD031E06D0214B18003A
:10237800FFF78DFD0E2000F097FA1E4B1800FFF7AF
:102388005CFD031E06D01B4B1800FFF78BFD0F20CA
:1023980000F08AFA174B1800FFF72DFD031E24D012
:1023A800144B1800FFF7AAFD031E1ED0FC1D114B8D
:1023B8001800FFF7D6FD03002370134B1B78002B82
:1023C80010D1124B00220121180002F020F9FB1D48
:1023D8001B780F4A19001000FFF7CEFD0D4B0222A3
:1023E8001A7002E0042000F05FFAC046BD4603B050
:1023F80090BDC04600440040FB070020C4080020F0
:10240800C5080020FC070020F90700200004005040
:1024180000380140FA07002080B582B000AF78602C
:102428007B68DB6940221340402B01D1012300E087
:1024380000231800BD4602B080BD80B586B000AF4D
:102448007860EFF31083BB60BB687B610123FB609E
:10245800FB6883F31088C0467B681B6880221A4398
:102468007B681A607B693B613B6983F31088C046CF
:10247800C046BD4606B080BD80B582B000AF78606A
:102488000A00FB1C1A70FB1C1A787B689A62C0460B
:10249800BD4602B080BD000080B582B000AF02002A
:1024A800BB1D1A80BB1D1A8880235B019A4201D389
:1024B80000231CE0BB1D1B880F4A934201D900234F
:1024C80015E0BB1D1B880D4A934201D905230EE078
:1024D800BB1D1B880A4A934201D9002307E0BB1D94
:1024E8001B88084A934201D9042300E000231800FE
:1024F800BD4602B080BDC046540D0000540900001E
:10250800AA060000AA02000090B583B000AFFB1D28
:1025180000221A70BB1D00221A707B1D00221A703F
:10252800BB1C00221A80FFF7D3F82C4B180000F0D0
:1025380075FE031E01D0FFF791FB284B02211800FE
:1025480000F0F6FE031E01D0FFF788FB234B1800AE
:1025580000F082FF0200BB1C1A80BC1DBB1C1B883C
:102568001800FFF799FF030023707B1DBA1D12782E
:102578001A7024E0012000F0EBFA184B180000F064
:102588006BFF0200BB1C1A80BC1DBB1C1B881800FB
:10259800FFF782FF03002370BA1D7B1D12781B789A
:1025A8009A4205D1FB1D1A78FB1D01321A7002E010
:1025B800FB1D00221A707B1DBA1D12781A70FB1DB4
:1025C8001B78042BD6D9054B180000F075FEBB1DEF
:1025D8001B781800BD4603B090BDC046C405002056
:1025E80080B582B000AFFB1D00221A70BB1D00220F
:1025F8001A707B1DFF221A70BB1D00221A70A023BF
:10260800DB050121180001F0E5FF0300012B05D1CE
:10261800BB1DBA1D127801210A431A70A023DB05DD
:102628000221180001F0D6FF0300012B05D1BB1DC4
:10263800BA1D127802210A431A70A023DB05102163
:10264800180001F0C7FF0300012B05D1BB1DBA1DFF
:10265800127804210A431A707B1DBA1D12781A7069
:1026680045E0012000F074FABB1D00221A70A02377
:10267800DB050121180001F0ADFF0300012B05D196
:10268800BB1DBA1D127801210A431A70A023DB056D
:102698000221180001F09EFF0300012B05D1BB1D8C
:1026A800BA1D127802210A431A70A023DB051021F3
:1026B800180001F08FFF0300012B05D1BB1DBA1DC7
:1026C800127804210A431A70BA1D7B1D12781B78F0
:1026D8009A4205D1FB1D1A78FB1D01321A7002E0DF
:1026E800FB1D00221A707B1DBA1D12781A70FB1D83
:1026F8001B78042BB5D9BB1D1B7830221343DBB2E2
:102708001800BD4602B080BD80B582B000AF594BFD
:102718001B78002B00D192E0564B1B78042B00D875
:1027280087E0554B9B78302B03D0534B9B78312B4C
:102738006AD1524B1B78002B62D1514B1B78042B6A
:1027480016D04D4B9B781A000123134008D08023E4
:102758005901A023DB050022180001F058FF07E00B
:1027680080235901A023DB050122180001F04FFF47
:10277800404B1A78BB1D043A1A70BB1D1B780533F1
:10278800DAB2404B1A70BB1D1A783F493F4B18000C
:1027980003F096F8BB1D1B78374A51783B4AD15451
:1027A800BB1D1B780133344A9178384AD154344BD5
:1027B8001878BB1D1B789A1C344BD3181A000021BB
:1027C80000F08CF8BB1D1B780333304A3021D154FC
:1027D800BB1D1B7804332D4A0D21D1542C4B0022EC
:1027E8001A70264B01221A70284B1B78294A1900A7
:1027F8001000FFF741FE274B1800FFF71EFE1BE0F5
:10280800052000F051F817E01B4B9B78392B0CD1B1
:10281800184B1A78FB1D043A1A70FB1D1A781A4BCC
:1028280011001800FEF7FAF906E0032000F03CF862
:1028380002E0022000F038F80E4B00221A70164B06
:102848001B78002B11D0154B1800FFF7E5FD031E70
:102858000BD0114B00221A70114B012201211800D4
:1028680001F0D5FE0F4B00221A70C046BD4602B0DB
:1028780080BDC0462E07002064060020C508002041
:10288800C7080020C408002067060020FC070020B5
:10289800FB07002000440040FA07002000380140F0
:1028A80000040050F907002080B582B000AF020094
:1028B800FB1D1A70FB1D1B78074AD35C7D2B07D8BC
:1028C800FB1D1B78044AD25C0132D1B2024AD154B2
:1028D800C046BD4602B080BDCC08002080B582B09D
:1028E80000AF3A60FB1D021C1A70BB1D0A1C1A704F
:1028F800FB1D1B78042B19D0052B0BD0BB1D1B7897
:10290800002B03D03B6820221A701BE03B68302262
:102918001A7017E0BB1D1B78002B03D03B684122BF
:102928001A700FE03B6831221A700BE0BB1D1B7850
:10293800002B03D03B6854221A7002E03B6838220F
:102948001A70C046C046BD4602B080BDB0B588B05A
:1029580000AF02003960FB1D1A7018243B191E4A8B
:1029680003CA03C31023FB181C4A03CA03C3082560
:102978007B191B4A03CA03C33A687B191000190064
:1029880008231A0002F09CFFFB1D1B78042B14D0AF
:10299800052B08D03A683B191000190008231A00C3
:1029A80002F08EFF13E03A680823FB1810001900A4
:1029B80008231A0002F084FF09E03A681023FB1884
:1029C8001000190008231A0002F07AFFC046C0461A
:1029D800BD4608B0B0BDC046FC5800080459000800
:1029E8000C59000880B500AFC046BD4680BD000048
:1029F8000D488546FFF7F6FF0C480D490D4A0023A0
:102A080002E0D458C4500433C4188C42F9D30A4A9B
:102A18000A4C002301E013600432A242FBD302F007
:102A28002BFFFFF73FF8FEE7002000200000002002
:102A38000C000020AC5900080C00002004090020FC
:102A4800FEE7000080B582B000AFFB1D00221A70BF
:102A58000B4B1A680A4B802149000A431A6003206D
:102A680000F010F8031E03D0FB1D01221A7001E0CC
:102A7800FFF714F9FB1D1B781800BD4602B080BD96
:102A88000020024090B585B000AF78600F23FB1896
:102A980000221A701D4B1B78002B2BD01C4B1C6876
:102AA8001A4B1B781900FA239800FDF725FB030041
:102AB80019002000FDF720FB0300180001F049FA77
:102AC800031E12D17B68032B0AD8796801235B4265
:102AD8000022180001F028FA0E4B7A681A600DE0FF
:102AE8000F23FB1801221A7008E00F23FB1801229C
:102AF8001A7003E00F23FB1801221A700F23FB182A
:102B08001B781800BD4605B090BDC04608000020DF
:102B1800000000200400002080B500AF054B1B78A2
:102B28001A00054B1B68D218034B1A60C046BD46F5
:102B380080BDC04608000020E408002080B500AF32
:102B4800024B1B681800BD4680BDC046E408002043
:102B580080B584B000AF7860FFF7F0FF0300BB607A
:102B68007B68FB60FB68013305D00A4B1B781A00B1
:102B7800FB689B18FB60C046FFF7E0FF0200BB68DC
:102B8800D31AFA689A42F7D8C046C046BD4604B080
:102B980080BDC0460800002080B582B000AF7860D4
:102BA80039607B681B68054A1A403B681A437B6892
:102BB8001A60C046BD4602B080BDC046FFFF3FFE5A
:102BC80080B582B000AF78607B681A68E0235B0448
:102BD80013401800BD4602B080BD80B584B000AF78
:102BE800F860B9607A60FB685B69BA6804210A40DA
:102BF800072191400A00D2431A40BB6804210B40C8
:102C0800796899400B001A43FB685A61C046BD4673
:102C180004B080BD80B582B000AF786039607B6851
:102C28005B693A6804210A40072191400A001A406A
:102C38003B6804210B40DA4013001800BD4602B07F
:102C480080BD80B582B000AF78607B68DA68C02349
:102C58001B01134001D1012300E000231800BD46E9
:102C680002B080BD80B584B000AFF860B9607A600A
:102C7800FB689B6ABA681F210A400F2191400A002D
:102C8800D2431A407B689B0E0F211940BB681F2056
:102C9800034099400B001A43FB689A62C046BD4640
:102CA80004B080BD80B582B000AF786039607B68C1
:102CB8009A6A3B685B035B0B1A437B689A62C0465F
:102CC800BD4602B080BD80B582B000AF7860396083
:102CD8007B689B6A3A685203520BD2431A407B685E
:102CE8009A62C046BD4602B080BD000080B584B07F
:102CF80000AFF860B9607A60FB685B69BA68120275
:102D0800D2431A40BB681B0279680B4004490B4048
:102D18001A43FB685A61C046BD4604B080BDC04630
:102D280000FFFF0780B582B000AF78607B689B68C2
:102D3800054A1340802252051A437B689A60C046B0
:102D4800BD4602B080BDC046E8FFFF6F80B582B0C7
:102D580000AF78607B689A6880235B051A408023FF
:102D68005B059A4201D1012300E000231800BD460B
:102D780002B080BD80B582B000AF78607B689B6888
:102D8800044A134001221A437B689A60C046BD4634
:102D980002B080BDE8FFFF7F80B582B000AF7860E9
:102DA8007B689B68044A134002221A437B689A6036
:102DB800C046BD4602B080BDE8FFFF7F80B582B047
:102DC80000AF78607B689B6801221340012B01D11A
:102DD800012300E000231800BD4602B080BD80B585
:102DE80082B000AF78607B689B6802221340022B98
:102DF80001D1012300E000231800BD4602B080BDC8
:102E080080B582B000AF78607B689B68044A134045
:102E180004221A437B689A60C046BD4602B080BD52
:102E2800E8FFFF7F80B582B000AF78607B689B6861
:102E3800044A134010221A437B689A60C046BD4674
:102E480002B080BDE8FFFF7F80B582B000AF786038
:102E58007B689B6804221340042B01D1012300E006
:102E680000231800BD4602B080BD000080B588B0C0
:102E780000AF78601F23FB1800221A700023BB6183
:102E880000237B610023FB607B68002B01D10123B9
:102E98009FE17B689B6D002B2AD17B68CF4A5A66DD
:102EA8007B68CF4A9A667B68CE4ADA667B68CE4AE8
:102EB8001A677B68CD4A5A677B68CD4A9A677B68F0
:102EC800CC4ADA677B6880229B58002B03D17B6849
:102ED8008021C94A5A507B6880229B587A68100022
:102EE80098477B680022DA657B6854220021995450
:102EF8007B681B681800FFF729FF031E15D17B6844
:102F08001B681800FFF70EFFBC4B1B68BC49180074
:102F1800FDF7F2F8030001335B00FB6002E0FB6899
:102F2800013BFB60FB68002BF9D17B681B6818002C
:102F3800FFF70CFF031E0FD17B689B6D10221A430D
:102F48007B689A657B68DB6D01221A437B68DA65CA
:102F58001F23FB1801221A707B681B681800FFF7F3
:102F680073FF03003B617B689B6D1022134000D008
:102F780022E13B69002B00D01EE17B689B6DA14AD2
:102F8800134002221A437B689A657B681B68180005
:102F9800FFF714FF031E00D0ADE07B689A687B68DA
:102FA8001B7E9B031A437B685B7EDB031A437B68AB
:102FB8009B7E5B031A437B681B6B002B02D080232C
:102FC8005B0100E000231A437B68DB681A437B68D7
:102FD8001B69002B04DA7B681B695B005B0801E056
:102FE80080239B031A437B682C215B5C5B001343A3
:102FF800BA691343BB617B6820229B5C012B15D106
:103008007B689B7E002B05D1BB698022520213434B
:10301800BB610BE07B689B6D20221A437B689A6535
:103028007B68DB6D01221A437B68DA657B685B6A23
:10303800002B0AD07B685A6AE0235B001A407B6841
:103048009B6A1343BA691343BB617B681B68DB68DF
:103058006D4A134019007B681B68BA690A43DA6035
:103068007B685B689B0F9A077B68DB6C13437A6904
:1030780013437B617B683C229B5C012B11D17B68ED
:103088005B689B0F9A077B681B6C1A437B685B6CB9
:103098001A437B689B6C1A437B69134301221343D1
:1030A8007B617B681B681B69584A134019007B6861
:1030B8001B687A690A431A617B685A68C0231B0631
:1030C8009A4218D07B685A688023DB059A4212D04E
:1030D8007B685A6880231B069A420CD04C4B1B68AD
:1030E8004C4A134019007B685A68F0239B031A4026
:1030F800474B0A431A607B6818687B685B6B1A0049
:103108000021FFF76AFD7B6818687B689B6B424962
:103118001A00FFF762FD7B681B69002B09D17B68E9
:103128001B689A6A7B681B68102149420A439A62A5
:1031380018E07B681A6980239B039A4212D17B6846
:103148001B689B6A7B68DB69013B9B001C22134060
:10315800102252429A4011007B681A6E7B681B68E5
:103168000A439A627B681B6800211800FFF752FD2A
:1031780002007B685B6B9A420BD17B680022DA65A0
:103188007B689B6D0322934301221A437B689A65EF
:103198001CE07B689B6D1222934310221A437B68C4
:1031A8009A657B68DB6D01221A437B68DA651F2309
:1031B800FB1801221A7009E07B689B6D10221A43E4
:1031C8007B689A651F23FB1801221A701F23FB18BE
:1031D8001B781800BD4608B080BDC046773400088B
:1031E8008734000897340008A7340008DD3D00083C
:1031F800ED3D0008FD3D0008ED1C00080000002022
:10320800400D0300FDFEFFFF0102DEFF02FCFF1F71
:1032180008270140FFFFC3FF04FFFF07B0B584B0D4
:1032280000AF78607B681B681800FFF70DFE031E6F
:1032380035D17B6854229B5C012B01D1022335E0F8
:103248007B685422012199540F257C197B6818004A
:1032580000F048FB030023707B191B78002B19D161
:103268007B689B6D134A1340802252001A437B6887
:103278009A657B680022DA657B681B681C221A60E5
:103288007B685422002199547B681B681800FFF75B
:10329800B7FD08E07B6854220021995403E00F230E
:1032A800FB1802221A700F23FB181B781800BD4662
:1032B80004B0B0BDFEF0FFFFB0B584B000AF7860D9
:1032C8007B6854229B5C012B01D1022329E07B6897
:1032D8005422012199540F257C197B68180000F0AD
:1032E800BFFA030023707B191B78002B12D17C19BD
:1032F8007B68180000F07CFB030023707B191B78A7
:10330800002B07D17B689B6D084A134001221A43A2
:103318007B689A657B685422002199540F23FB1817
:103328001B781800BD4604B0B0BDC046FEFEFFFFC6
:1033380080B584B000AF786039607B685B69082B22
:1033480002D10823FB600FE07B681B68DB68012261
:10335800134007D07B689B6D20221A437B689A65CF
:10336800012372E00423FB60FFF7E8FB0300BB6066
:103378001FE03B6801331CD0FFF7E0FB0200BB688D
:10338800D31A3A689A4202D33B68002B11D17B6862
:103398001B681B68FA6813400BD17B689B6D04227D
:1033A8001A437B689A657B68542200219954032349
:1033B8004BE07B681B681B68FA681340D9D07B68B0
:1033C8009B6D802292001A437B689A657B681B6814
:1033D8001800FFF736FC031E2ED07B689B7E002B5F
:1033E8002AD17B681B681B6808221340082B23D14D
:1033F8007B681B681800FFF727FD031E10D17B6848
:103408001B685A687B681B680C218A435A607B6872
:103418009B6D104A134001221A437B689A650BE0A2
:103428007B689B6D20221A437B689A657B68DB6DFD
:1034380001221A437B68DA657B681B7E002B03D167
:103448007B681B680C221A6000231800BD4604B074
:1034580080BDC046FEFEFFFF80B582B000AF786039
:103468007B681B681B6C1800BD4602B080BD80B528
:1034780082B000AF7860C046BD4602B080BD80B55E
:1034880082B000AF7860C046BD4602B080BD80B54E
:1034980082B000AF7860C046BD4602B080BD80B53E
:1034A80082B000AF7860C046BD4602B080BD000063
:1034B80080B586B000AF786039601723FB1800220A
:1034C8001A700023FB607B6854229B5C012B01D19E
:1034D8000223C0E17B685422012199547B681B6850
:1034E8001800FFF7B1FC031E00D0A3E13B685B683E
:1034F800022B00D143E17B681A6980231B069A429C
:1035080004D07B681B69C14A934208D17B681A685A
:103518003B681B6819001000FFF7C4FBC9E07B6813
:103528001A6E3B685B681F210B400F2199400B0006
:10353800DB43134019003B681B685B035B0B05D139
:103548003B681B689B0E1F22134098E03B681B6872
:103558000122134000D091E03B681B68022213400F
:1035680000D089E03B681B680422134000D081E04A
:103578003B681B680822134000D079E03B681B6851
:103588001022134000D071E03B681B6820221340D2
:1035980000D069E03B681B684022134000D061E01E
:1035A8003B681B688022134000D059E03B681A68CA
:1035B80080235B00134051D13B681A6880239B002D
:1035C800134049D13B681A688023DB00134041D17E
:1035D8003B681A6880231B01134039D13B681A687D
:1035E80080235B01134031D13B681A6880239B011B
:1035F800134029D13B681A688023DB01134021D18D
:103608003B681A6880231B02134019D13B681A686B
:1036180080235B02134011D13B681A6880239B0208
:10362800134009D13B681A688023DB02134001D09C
:10363800122324E0002322E0112320E010231EE0BF
:103648000F231CE00E231AE00D2318E00C2316E0CC
:103658000B2314E00A2312E0092310E008230EE0EC
:1036680007230CE006230AE0052308E0042306E00C
:10367800032304E0022302E0012300E000233A6868
:1036880052681F20024093400A001A437B681A665A
:103698003B685B689B085A1C7B68DB699A4208D8C0
:1036A8007B6818683B6859683B681B681A00FFF715
:1036B800D9FA7B6818683B6819683B689B681A00E8
:1036C800FFF714FB3B681B68002B00DBBCE0504B8A
:1036D8001800FFF775FA03003B613B681B684D4A09
:1036E800934222D13A6980231B0413401DD13B69C0
:1036F800802212041343464A19001000FFF74CFABF
:10370800454B1B6845491800FCF7F6FC03005A1C9A
:1037180013005B009B189B00FB6002E0FB68013B09
:10372800FB60FB68002BF9D18EE03B681B683C4AC4
:1037380093420ED13A6980235B04134009D13B6957
:10374800802252041343324A19001000FFF724FA6A
:103758007AE03B681B68334A934200D074E03A69C8
:103768008023DB03134000D06EE03B698022D20344
:103778001343274A19001000FFF70EFA64E07B682C
:103788001A6980231B069A4204D07B681B691F4A6A
:10379800934207D17B681A683B681B6819001000C0
:1037A800FFF791FA3B681B68002B4DDA184B18009D
:1037B800FFF706FA03003B613B681B68154A934212
:1037C80008D13B69184A1340114A19001000FFF745
:1037D800E3F939E03B681B68114A934208D13B6919
:1037E800124A13400A4A19001000FFF7D5F92BE0D6
:1037F8003B681B680B4A934226D13B690C4A13402D
:10380800034A19001000FFF7C7F91DE00400008003
:1038180008270140001000B000000020400D030000
:10382800004000B8002000B4FFFF7FFFFFFFFFFE4D
:10383800FFFFBFFF7B689B6D20221A437B689A6558
:103848001723FB1801221A707B685422002199540F
:103858001723FB181B781800BD4606B080BDC0466C
:1038680080B584B000AF78607B681B681800FFF7EC
:10387800EBFA031E31D07B681B681800FFF7AFFA1C
:10388800031E04D17B681B681800FFF7CBFAFFF70B
:1038980055F90300FB601AE0FFF750F90200FB68D6
:1038A800D31A022B13D97B681B689B680422134028
:1038B8000DD07B689B6D10221A437B689A657B68E4
:1038C800DB6D01221A437B68DA65012306E07B6819
:1038D8001B689B6804221340DED100231800BD46F4
:1038E80004B080BD80B584B000AF78600023BB60B1
:1038F8007B681B681800FFF761FA031E00D069E0B7
:103908007B681B689B68364A13400DD07B689B6DAB
:1039180010221A437B689A657B68DB6D01221A4383
:103928007B68DA65012356E07B681B681800FFF79F
:1039380021FA2C4B1800FFF743F9020080231B04DF
:1039480013400FD0284B1B6828491800FCF7D4FBFC
:1039580003000133BB6002E0BB68013BBB60BB688E
:10396800002BF9D17B685B7E012B33D0FFF7E6F89B
:103978000300FB6027E07B681B681800FFF71EFA4E
:10398800031E04D17B681B681800FFF7F3F9FFF7E3
:10399800D5F80200FB68D31A022B14D97B681B6880
:1039A8001B6801221340012B0DD07B689B6D1022F0
:1039B8001A437B689A657B68DB6D01221A437B6832
:1039C800DA65012307E07B681B681B680122134046
:1039D800012BD0D100231800BD4604B080BDC046DD
:1039E800170000800827014000000020400D030058
:1039F80080B584B000AF78607B681B681800FFF75B
:103A0800EEF90300FB607B681B681800FFF7D6F926
:103A1800031E46D0FB68002B43D17B681B689B685C
:103A280005221340012B0DD17B681B681800FFF796
:103A3800B3F97B681B6803221A60FFF77FF803005D
:103A4800BB6028E07B689B6D10221A437B689A65EF
:103A58007B68DB6D01221A437B68DA65012321E06C
:103A6800FFF76CF80200BB68D31A022B13D97B68E6
:103A78001B689B68012213400DD07B689B6D102248
:103A88001A437B689A657B68DB6D01221A437B6861
:103A9800DA65012306E07B681B689B6801221340F6
:103AA800DED100231800BD4604B080BD80B582B0C9
:103AB80000AF78607B681A68F0239B0313401800F6
:103AC800BD4602B080BD80B582B000AF78607B682B
:103AD8001B699B0F9B071800BD4602B080BD80B5CF
:103AE80082B000AF786039607B68B4229B587F222F
:103AF80093431A003B681A437B68B4215A50C04666
:103B0800BD4602B080BD80B582B000AF78607B68EA
:103B1800B4229B587F2213401800BD4602B080BDD6
:103B280080B582B000AF78607B689B68044A134018
:103B380001221A437B689A60C046BD4602B080BD28
:103B4800E8FFFF7F80B582B000AF78607B689B6834
:103B5800044A134002221A437B689A60C046BD4655
:103B680002B080BDE8FFFF7F80B582B000AF78600B
:103B78007B689B6801221340012B01D1012300E0DF
:103B880000231800BD4602B080BD000080B582B099
:103B980000AF78607B689B68054A13408022120654
:103BA8001A437B689A60C046BD4602B080BDC046D5
:103BB800E8FFFF7F80B582B000AF78607B689B68C4
:103BC800DB0FDA0780231B069A4201D1012300E0AC
:103BD80000231800BD4602B080BD000090B58BB030
:103BE80000AF78600023FB6000233B627B685422AF
:103BF8009B5C012B01D10223DDE07B68542201216B
:103C080099541F23FC187B681800FFF7F1FE030086
:103C180023707B681B681800FFF7A6FF031E00D0FF
:103C2800BCE07B689B6D664A134002221A437B689E
:103C38009A657B681B68DB68624A1340BB617B68D6
:103C48001B68DA687B681B685F490A40DA600023F2
:103C58007B622DE07B681B681800FFF797FF14E074
:103C6800FB680133FB60FB68584A93420DD97B68B7
:103C78009B6D1222934310221A437B689A657B68D6
:103C8800542200219954012395E07B681B68180091
:103C9800FFF790FF031EE3D17B681B681800FFF74E
:103CA80032FF02003B6A9B183B627B6A01337B62EE
:103CB8007B6A072BCED9796A386AFCF71DFA0300AC
:103CC8003B627B681B681800FFF72AFF7B681B684C
:103CD8001800FFF7F8FE031E1BD13D4B1800FFF735
:103CE800E5FE03007B617A69E0235B039A4210D307
:103CF8007B699B0C033B01229A401300BB60BB68A5
:103D08005B08BB6002E0BB68013BBB60BB68002B83
:103D1800F9D17B681B683A6A11001800FFF7DFFECB
:103D28007B681B681800FFF70DFFFEF707FF03000D
:103D38003B611BE0FEF702FF02003B69D31A022B2E
:103D480014D97B681B681800FFF70EFF031E0DD0FF
:103D58007B689B6D10221A437B689A657B68DB6DD4
:103D680001221A437B68DA65012324E07B681B681B
:103D78001800FFF7F9FE031EDCD17B681B68D968C1
:103D88007B681B68BA690A43DA607B689B6D03220B
:103D9800934301221A437B689A6505E07B689B6D13
:103DA80010221A437B689A657B6854220021995433
:103DB8001F23FB181B781800BD460BB090BDC046EA
:103DC800FDFEFFFF03800000FC7FFFFFFFF1020004
:103DD8000827014080B582B000AF7860C046BD4674
:103DE80002B080BD80B582B000AF7860C046BD46E5
:103DF80002B080BD80B582B000AF7860C046BD46D5
:103E080002B080BD90B583B000AF02003960FB1DE1
:103E18001A70FB1D1B787F2B28D82F4AFB1D1B7897
:103E28005BB29B08C0339B009B58FA1D12781100A7
:103E380003220A40D200FF2191400A00D2431A40CF
:103E480011003B689B01FF221A40FB1D1B781800DC
:103E580003230340DB009A401F48FB1D1B785BB21D
:103E68009B080A43C0339B001A5031E01B4AFB1DD4
:103E78001B7819000F230B40083B9B0806339B0057
:103E8800D31804331B68FA1D1278110003220A4064
:103E9800D200FF2191400A00D2431A4011003B682A
:103EA8009B01FF221A40FB1D1B78180003230340C7
:103EB800DB009A400948FB1D1B781C000F23234098
:103EC800083B9B080A4306339B00C31804331A6057
:103ED800C046BD4603B090BD00E100E000ED00E043
:103EE80080B582B000AF78607B685A1E80235B047F
:103EF8009A4201D3012310E00A4B7A68013A5A60CA
:103F080001235B4203211800FFF77CFF054B0022C9
:103F18009A60044B07221A6000231800BD4602B0BD
:103F280080BDC04610E000E080B584B000AFB96045
:103F38007A600F217B18021C1A70BA687B181B78EC
:103F48005BB211001800FFF75DFFC046BD4604B024
:103F580080BD80B582B000AF78607B681800FFF73D
:103F6800BFFF03001800BD4602B080BD80B582B017
:103F780000AFFB1D00221A700B4B5B69002B0CDA9B
:103F8800094B0A4A9A60084B094A9A60064B5B69D2
:103F9800002B02DAFB1D01221A70FB1D1B7818008A
:103FA800BD4602B080BDC0460020024023016745DF
:103FB800AB89EFCD80B582B000AFFB1D01221A702E
:103FC8000D4B5A698023DB0513400ED00A4B0B4A70
:103FD800DA60094B0A4ADA60074B5A698023DB0525
:103FE800134002D1FB1D00221A70FB1D1B7818001C
:103FF800BD4602B080BDC046002002403B2A1908D9
:104008007F6E5D4C80B584B000AF7860FEF796FD9A
:104018000300FB6080235B02BB600CE07B6801331C
:1040280009D0FEF78BFD0200FB68D31A7A689A4222
:1040380001D8032328E0164B1B69BA681340EDD159
:10404800134B1B69134A1340BB60114B124A1A6188
:10405800BB68002B11D0114BBA685A60012313E0DA
:104068007B68013309D0FEF769FD0200FB68D31AAB
:104078007A689A4201D8032306E0054B1A6980231F
:10408800DB021340ECD100231800BD4604B080BD0C
:1040980000200240FA830000FB830000E8080020AB
:1040A800B0B584B000AF78603C4B1B78012B01D1D0
:1040B80002236EE0394B01221A70384B00225A60F5
:1040C8007B681B680122134008D07B6858687B68AE
:1040D80099687B68DB681A0000F08AF87B681B68BF
:1040E80006221340062B09D17B6858697B689969B9
:1040F8007B681B691A0000F0C1F821E07B681B6827
:10410800022213400BD000F0EFF80300BB607B687D
:104118001A69B968BB68180000F0B0F810E07B684D
:104128001B68042213400BD000F0C6F80300BB60E4
:104138007B6858697B689B69BA68190000F09EF82B
:104148000F257C19FA239B001800FFF75BFF03007B
:10415800237028003B181B78002B14D1104B5A6988
:104168000F4B802189020A435A613C18FA239B00AD
:104178001800FFF747FF03002370094B5A69084BE3
:1041880008490A405A61054B00221A700F23FB1890
:104198001B781800BD4604B0B0BDC046E808002032
:1041A80000200240FFFFFDFF80B582B000AF7860BD
:1041B8007B6807221A607B6858687B680833190097
:1041C8007B680C331A0000F02FF800F075F8020035
:1041D8007B681A6100F088F802007B689A617B6846
:1041E800024A5A61C046BD4602B080BD00604F0712
:1041F80080B584B000AFF860B9607A60FB68012BC5
:1042080006D17B681904074BBA680A43DA6205E0ED
:104218007B681904034BBA680A431A63C046BD4653
:1042280004B080BD0020024080B584B000AFF860C3
:10423800B9607A60FB68012B0DD10F4BDB6A1F2236
:104248001A40BB681A600C4BDB6A1B0C1F221A4011
:104258007B681A600CE0084B1B6B1F221A40BB6876
:104268001A60054B1B6B1B0C1F221A407B681A60D7
:10427800C046BD4604B080BD0020024080B586B06F
:1042880000AFF860B9607A600A4B1B6A7B61FB6813
:10429800FF221343DA437B6913407B617A69BB6869
:1042A8001A431100034B7A680A431A62C046BD4696
:1042B80006B080BD0020024080B582B000AF094B37
:1042C8001B6AFF2213407B607B68AA2B04D07B68A3
:1042D800CC2B01D0BB2300E07B681800BD4602B0A0
:1042E80080BDC0460020024080B582B000AF054BBB
:1042F8001B6A054A13407B607B681800BD4602B004
:1043080080BDC0460020024000604F0780B586B0DF
:1043180000AF7860396000237B6147E13B681B6828
:1043280001217A6991400A001340FB60FB68002B69
:1043380000D138E13B685B6803221340012B05D0AC
:104348003B685B6803221340022B30D17B689B6873
:104358003B617B695B0003229A401300DA433B69A7
:1043680013403B613B68DA687B695B009A40130045
:104378003A6913433B617B683A699A607B685B687A
:104388003B6101227B699A401300DA433B69134081
:104398003B613B685B681B0901221A407B699A40B4
:1043A80013003A6913433B617B683A695A603B687A
:1043B8005B6803221340032B17D07B68DB683B61E3
:1043C8007B695B0003229A401300DA433B69134080
:1043D8003B613B689A687B695B009A4013003A69C5
:1043E80013433B617B683A69DA603B685B68032288
:1043F8001340022B23D17B69DA087B6808329200CC
:10440800D3583B617B69072213409B000F229A40D7
:104418001300DA433B6913403B613B681A697B69C7
:1044280007210B409B009A4013003A6913433B61F4
:104438007B69DA087B68083292003969D1507B6859
:104448001B683B617B695B0003229A401300DA43D7
:104458003B6913403B613B685B6803221A407B69F8
:104468005B009A4013003A6913433B617B683A69E1
:104478001A603B685A68C0239B02134000D192E03F
:10448800504A7B699B0818339B009B583B617B69AA
:1044980003221340DB000F229A401300DA433B69E2
:1044A80013403B617A68A023DB059A4213D07B68EE
:1044B800454A93420DD07B68444A934207D07B68B3
:1044C800434A934201D1032306E0052304E0022373
:1044D80002E0012300E000237A6903210A40D200A8
:1044E80093403A6913433B6136497B699B0818330B
:1044F8009B003A695A50334B1B683B61FB68DA43AF
:104508003B6913403B613B685A6880235B03134057
:1045180003D03A69FB6813433B612A4B3A691A6036
:10452800284B5B683B61FB68DA433B6913403B619E
:104538003B685A6880239B03134003D03A69FB68A1
:1045480013433B611F4B3A695A601E4A8423D35870
:104558003B61FB68DA433B6913403B613B685A683F
:1045680080239B02134003D03A69FB6813433B61E5
:10457800144984223B698B50124A8023D3583B61EB
:10458800FB68DA433B6913403B613B685A68802308
:104598005B02134003D03A69FB6813433B61094946
:1045A80080223B698B507B6901337B613B681A68C9
:1045B8007B69DA40131E00D0B0E6C046C046BD464F
:1045C80006B080BD001802400004005000080050EA
:1045D800000C005080B584B000AF78600A00BB1CA6
:1045E8001A807B681B69BA1C1288134004D00F23F9
:1045F800FB1801221A7003E00F23FB1800221A701F
:104608000F23FB181B781800BD4604B080BD80B589
:1046180082B000AF786008001100BB1C021C1A8031
:104628007B1C0A1C1A707B1C1B78002B04D0BB1C3B
:104638001A887B689A6103E0BB1C1A887B689A62B7
:10464800C046BD4602B080BD80B584B000AF78607A
:104658000A00BB1C1A807B685B69FB60BB1C1B885B
:10466800FA6813401A04FB68DB43B91C09880B403D
:104678001A437B689A61C046BD4604B080BD0000FD
:1046880080B584B000AF78607B68002B01D101232E
:104698003DE07B681B68204A1A607B681B681F4ADC
:1046A8001A607B681B687A6852685A607B681B6866
:1046B8007A6892689A60FEF741FA0300FB600EE0A0
:1046C800FEF73CFA0200FB68D31A312B07D97B6846
:1046D8001B68DB680722134001D0032317E07B68BF
:1046E8001B68DB6807221340EAD17B681B681A69DC
:1046F8007B68DB689A4205D07B681B687A68D26859
:104708001A6103E07B681B68054A1A6000231800D9
:10471800BD4604B080BDC046CCCC00005555000055
:10472800AAAA000080B582B000AF78607B681B68D9
:10473800034A1A6000231800BD4602B080BDC04677
:10474800AAAA000080B584B000AF7860194B1B6836
:10475800194A13401900174B7A680A431A607A6895
:1047680080239B009A421FD1144B1A6813005B00E8
:104778009B185B0012491800FBF7BEFC03000133CD
:10478800FB6008E0FB68002B03D0FB68013BFB6083
:1047980001E0032309E0074B5A698023DB001A4034
:1047A8008023DB009A42EDD000231800BD4604B0F8
:1047B80080BDC04600700040FFF9FFFF00000020E8
:1047C80040420F0080B588B000AF78607B68002B4E
:1047D80001D10123F3E27B681B680122134000D159
:1047E8007CE0C34B9B6838221340BB61C04BDB683D
:1047F800032213407B61BB69102B02D17B69032B19
:1048080002D0BB69082B0BD1B94B1A6880239B02D5
:10481800134062D07B685B68002B5ED10123CEE237
:104828007B685A6880235B029A4207D1B04B1A68AA
:10483800AF4B802149020A431A6020E07B685A681E
:10484800A023DB029A420ED1A94B1A68A84B8021FB
:10485800C9020A431A60A64B1A68A54B802149026F
:104868000A431A600BE0A24B1A68A14BA1490A40FF
:104878001A609F4B1A689E4B9F490A401A607B68D2
:104888005B68002B14D0FEF759F903003B6108E080
:10489800FEF754F902003B69D31A642B01D90323AC
:1048A8008DE2934B1A6880239B021340F0D015E0E9
:1048B800FEF744F903003B6108E0FEF73FF9020008
:1048C8003B69D31A642B01D9032378E2884B1A6811
:1048D80080239B021340F0D100E0C0467B681B6830
:1048E8000222134000D199E0814B9B683822134083
:1048F800BB617F4BDB68032213407B61BB69102BD4
:1049080002D17B69022B02D0BB69002B35D1784BD1
:104918001A688023DB00134005D07B68DB68002B16
:1049280001D101234BE2724B5B68744A13401900B2
:104938007B685B691A026E4B0A435A60BB69002B9D
:1049480012D16B4B1B686E4A134019007B681A69B9
:10495800674B0A431A60664B1B68DB0A0722134041
:10496800684ADA40684B1A60684B1B681800FEF703
:1049780089F8031E51D0012321E27B68DB68002BF4
:1049880030D05B4B1B685E4A134019007B681A697C
:10499800574B0A431A60564B1A68554B80214900F9
:1049A8000A431A60FEF7CAF803003B6108E0FEF705
:1049B800C5F802003B69D31A022B01D90323FEE193
:1049C8004B4B1A688023DB001340F0D0484B5B68E0
:1049D8004A4A134019007B685B691A02444B0A4330
:1049E8005A601BE0424B1A68414B49490A401A6019
:1049F800FEF7A4F803003B6108E0FEF79FF8020009
:104A08003B69D31A022B01D90323D8E1384B1A6822
:104A18008023DB001340F0D100E0C0467B681B68B0
:104A28000822134047D0324B9B6838221340182B7A
:104A38000AD12F4B1B6E022213403CD07B689B6926
:104A4800002B38D10123BAE17B689B69002B19D070
:104A5800274B1A6E264B01210A431A66FEF76EF899
:104A680003003B6108E0FEF769F802003B69D31ACE
:104A7800022B01D90323A2E11D4B1B6E0222134016
:104A8800F1D018E01A4B1A6E194B01218A431A66A5
:104A9800FEF754F803003B6108E0FEF74FF8020008
:104AA8003B69D31A022B01D9032388E1104B1B6EF3
:104AB80002221340F1D17B681B680422134000D105
:104AC800C6E01F23FB1800221A70094B9B68382286
:104AD8001340202B1ED1064BDB6D0222134000D160
:104AE800B6E07B689B68002B00D0B1E0012366E14B
:104AF80000100240FFFFFEFFFFFFFBFFFF80FFFFEC
:104B0800FFC7FFFF0024F40000000020040000207D
:104B1800FFFEFFFFAC4BDA6B80235B05134001D12E
:104B2800012300E00023002B11D0A74BDA6BA64B22
:104B3800802149050A43DA63A34BDA6B80235B05BE
:104B48001340FB60FB681F23FB1801221A709F4B60
:104B58001A6880235B0013401AD19C4B1A689B4B40
:104B6800802149000A431A60FDF7E8FF03003B6112
:104B780008E0FDF7E3FF02003B69D31A022B01D9D5
:104B880003231CE1914B1A6880235B001340F0D08B
:104B98007B689B68012B06D18B4BDA6D8A4B012110
:104BA8000A43DA651CE07B689B68052B0CD1864BB1
:104BB800DA6D854B04210A43DA65834BDA6D824B43
:104BC80001210A43DA650BE07F4BDA6D7E4B012148
:104BD8008A43DA657C4BDA6D7B4B04218A43DA65BC
:104BE8007B689B68002B14D0FDF7A8FF03003B618E
:104BF80009E0FDF7A3FF02003B69D31A744A934208
:104C080001D90323DBE0704BDB6D02221340F0D0A7
:104C180013E0FDF793FF03003B6109E0FDF78EFF0A
:104C280002003B69D31A6A4A934201D90323C6E0BA
:104C3800654BDB6D02221340F0D11F23FB181B7854
:104C4800012B05D1604BDA6B5F4B62490A40DA638E
:104C58007B68DB69002B00D1B0E05B4B9B68382296
:104C68001340102B00D178E07B68DB69022B53D10D
:104C7800554B1A68544B58490A401A60FDF75EFFB5
:104C880003003B6108E0FDF759FF02003B69D31AB6
:104C9800022B01D9032392E04B4B1A6880239B0413
:104CA8001340F0D1484BDB684C4A134019007B682D
:104CB8001A6A7B685B6A1A437B689B6A1B021A4301
:104CC8007B68DB6A1A437B681B6B1A433E4B0A43BB
:104CD800DA603D4B1A683C4B802149040A431A604C
:104CE800394BDA68384B802149050A43DA60FDF709
:104CF80025FF03003B6108E0FDF720FF02003B6948
:104D0800D31A022B01D9032359E02F4B1A688023A9
:104D18009B041340F0D051E02B4B1A682A4B2E49C4
:104D28000A401A60FDF70AFF03003B6108E0FDF73F
:104D380005FF02003B69D31A022B01D903233EE089
:104D4800214B1A6880239B041340F0D11E4BDA686C
:104D58001D4B23490A40DA6030E07B68DB69012B90
:104D680001D101232BE0184BDB687B617B690322AF
:104D78001A407B681B6A9A421ED17B6970221A40CE
:104D88007B685B6A9A4217D17A69FE23DB011A4075
:104D98007B689B6A1B029A420ED17A69F8239B03AF
:104DA8001A407B68DB6A9A4206D17B695B0F5A0717
:104DB8007B681B6B9A4201D0012300E00023180096
:104DC800BD4608B080BDC0460010024000700040DB
:104DD80088130000FFFFFFEFFFFFFFFE8C80C11F5D
:104DE800FCFFFEEF80B584B000AF786039607B6867
:104DF800002B01D10123E9E0764B1B680722134001
:104E08003A689A421ED9734B1B68072293431900CC
:104E1800704B3A680A431A60FDF790FE0300FB6086
:104E280009E0FDF78BFE0200FB68D31A6A4A934239
:104E380001D90323CAE0674B1B68072213403A686D
:104E48009A42EED17B681B680222134015D07B681A
:104E58001B680422134006D0604B9A685F4BE02120
:104E6800C9010A439A605D4B9B685D4A134019006B
:104E78007B689A68594B0A439A607B681B680122D1
:104E8800134057D07B685B68012B07D1534B1A68D6
:104E980080239B0213402BD1012397E07B685B683A
:104EA800022B07D14D4B1A6880239B0413401FD156
:104EB80001238BE07B685B68002B07D1474B1A689E
:104EC8008023DB00134013D101237FE07B685B68FC
:104ED800032B06D1414B1B6E0222134008D101233C
:104EE80074E03E4BDB6D0222134001D101236DE0DB
:104EF8003A4B9B680722934319007B685A68374BE3
:104F08000A439A60FDF71AFE0300FB6009E0FDF70B
:104F180015FE0200FB68D31A2F4A934201D90323D6
:104F280054E02E4B9B6838221A407B685B68DB0094
:104F38009A42ECD1274B1B68072213403A689A42E1
:104F48001ED2244B1B68072293431900214B3A6851
:104F58000A431A60FDF7F2FD0300FB6009E0FDF764
:104F6800EDFD0200FB68D31A1B4A934201D90323C3
:104F78002CE0184B1B68072213403A689A42EED17E
:104F88007B681B680422134009D0144B9B68154AA0
:104F9800134019007B68DA68104B0A439A6000F0E6
:104FA80029F801000D4B9B681B0A0F221A400E4B73
:104FB8009200D3581F2213400A00DA400B4B1A60A4
:104FC8000B4B1B681800FDF75DFD03001800BD467C
:104FD80004B080BD00200240881300000010024089
:104FE800FFF0FFFFFF8FFFFF1459000800000020AB
:104FF8000400002080B586B000AF3C4B9B68382287
:1050080013400FD1394B1B68DB0A072213400122DA
:105018009A4013003B6039683548FBF76DF8030088
:105028003B615DE0314B9B6838221340082B02D16D
:10503800304B3B6154E02D4B9B6838221340102BBA
:1050480038D12A4BDB6803221340FB60274BDB680F
:105058001B09072213400133BB60FB68032B0DD1EA
:10506800B9682448FBF748F8030019001F4BDB68B0
:105078001B0A7F2213404B437B610DE0B9681C4833
:10508800FBF73AF803001900184BDB681B0A7F226C
:1050980013404B437B61C046144BDB685B0F072210
:1050A800134001337B6079687869FBF725F80300C2
:1050B8003B6115E00D4B9B6838221340202B03D130
:1050C80080231B023B610BE0084B9B68382213408E
:1050D800182B03D1FA23DB013B6101E000233B617C
:1050E8003B691800BD4606B080BDC04600100240AE
:1050F8000024F40000127A0080B584B000AFF86094
:10510800B9607A60FB681968BB685B431A001300D2
:105118005B009B18DB430B401A00BB685B43796854
:105128004B431A43FB681A60C046BD4604B080BDB5
:1051380080B584B000AFF860B9607A60FB685B68DE
:10514800BA68D2431A40BB6879684B431A43FB6874
:105158005A60C046BD4604B080BD80B584B000AF7B
:10516800F860B9607A60FB689968BB685B431A00AD
:1051780013005B009B18DB430B401A00BB685B43C2
:1051880079684B431A43FB689A60C046BD4604B031
:1051980080BD80B584B000AFF860B9607A60FB6804
:1051A800D968BB685B431A0013005B009B18DB439C
:1051B8000B401A00BB685B4379684B431A43FB6892
:1051C800DA60C046BD4604B080BD80B584B000AF8B
:1051D800F860B9607A60FB68196ABB685B43BA68B3
:1051E8005343BA685A4313001B019B1ADB430B4015
:1051F8001A00BB685B43B9684B43B9684B4379688D
:105208004B431A43FB681A62C046BD4604B080BDD2
:1052180080B584B000AFF860B9607A60FB68596AFD
:10522800BB681B0ABA68120A5343BA68120A534386
:10523800BA68120A5A4313001B019B1ADB430B403E
:105248001A00BB681B0AB968090A4B43B968090AFE
:105258004B43B968090A4B4379684B431A43FB68C7
:105268005A62C046BD4604B080BD80B584B000AF68
:10527800786039600023FB6047E03B681B680121C8
:10528800FA6891400A001340BB60BB68002B39D014
:105298003B685B68012B03D03B685B68022B0DD130
:1052A8003B689A68B9687B681800FFF756FF3B6847
:1052B800DA68B9687B681800FFF73AFF3B681A6933
:1052C800B9687B681800FFF764FF3B685B68022BCE
:1052D80011D1BB68FF2B07D83B685A69B9687B684E
:1052E8001800FFF772FF06E03B685A69B9687B68E7
:1052F8001800FFF78DFF3B685A68B9687B6818008B
:10530800FFF7FAFEFB680133FB603B681A68FB682D
:10531800DA40131EB1D100231800BD4604B080BD89
:1053280080B500AF074B1A688023DB001A40802342
:10533800DB009A4201D1012300E000231800BD469A
:1053480080BDC0460010024080B500AF054BDB6D44
:1053580002221340022B01D1012300E00023180090
:10536800BD4680BD0010024080B500AF034B9B686E
:10537800382213401800BD4680BDC04600100240C8
:1053880080B500AF034B9A68F0231B011340180047
:10539800BD4680BD0010024080B500AF034B9A683F
:1053A800E023DB0113401800BD4680BD0010024019
:1053B80080B582B000AF7860054B5B6D7A681A40A3
:1053C8007B681B0413431800BD4602B080BDC0466D
:1053D8000010024080B500AF034BDB681B0A7F2238
:1053E80013401800BD4680BD0010024080B500AFD4
:1053F800034BDB685B0F5B071800BD4680BDC046EA
:105408000010024080B500AF034BDB680322134055
:105418001800BD4680BDC0460010024080B500AFF0
:10542800034BDB68702213401800BD4680BDC046A0
:105438000010024080B582B000AF786000F066F8D6
:1054480002007B681A607B681B68180000F08CF803
:1054580002007B685A607B685B68180000F09CF863
:1054680002007B689A60C046BD4602B080BD00005D
:1054780080B584B000AF78600023FB607B68032BA5
:1054880037D17B681800FFF793FF03001B4A93424C
:1054980016D01A4A93421CD8194A934203D0194A83
:1054A800934205D015E000F031F80300FB6020E0DE
:1054B800FFF736FF0300012B18D1134BFB6015E0F3
:1054C800FFF742FF0300012B12D180231B02FB6070
:1054D8000EE000F01BF80300180000F045F8030088
:1054E800180000F059F80300FB6002E0C04600E035
:1054F800C046FB681800BD4604B080BD0300030029
:1055080001000300020003000024F40080B582B00B
:1055180000AFFFF729FF0300082B02D0102B03D0A0
:1055280007E00E4B7B6014E000F04CF803007B6052
:105538000FE00B4B1B68DB0A0722134001229A403D
:1055480013003B6039680748FAF7D6FD03007B6013
:10555800C0467B681800BD4602B080BD00127A00C4
:10556800001002400024F40080B582B000AF7860DB
:10557800FFF706FF03001B0A0F221A40054B920093
:10558800D3581F2213407A68DA4013001800BD462A
:1055980002B080BD1459000880B582B000AF7860B1
:1055A800FFF7FAFE03001A0B054B9200D3581F228F
:1055B80013407A68DA4013001800BD4602B080BD77
:1055C8005459000890B583B000AFFFF71BFF0300E4
:1055D8003B603B68022B03D03B68032B03D005E0FC
:1055E800134B7B6005E0134B7B6002E0104B7B6044
:1055F800C046FFF7EFFE02007B6853431C00FFF72D
:105608000DFF03001B09013319002000FAF774FD90
:1056180003001C00FFF7EAFE03005B0F01331900CB
:105628002000FAF769FD03001800BD4603B090BDDD
:105638000024F40000127A0080B582B000AF7860D0
:105648007B681B6801221340012B01D1012300E074
:1056580000231800BD4602B080BD80B582B000AFFF
:10566800786039607B68DB6A0F2293433A6892B2AC
:105678001A437B68DA62C046BD4602B080BD0000AE
:1056880080B582B000AF786039607B685B68054A96
:105698001A403B681A437B685A60C046BD4602B050
:1056A80080BDC046FFCFFFFF80B582B000AF7860F5
:1056B80039607B689B68054A1A403B681A437B68D7
:1056C8009A60C046BD4602B080BDC046FFFCFFFFE1
:1056D80080B586B000AFF860B9607A603B607B68DF
:1056E8000B2B46D83B6A002B43D03A6880231B0219
:1056F8009A4226D17B68DBB21A00204B9200D3581D
:105708001900B868FAF7F8FC03005A003B6A5B080E
:10571800D318396A1800FAF7EFFC03009BB27B61D3
:105728007B69174A13403B617B695B089BB21A008F
:10573800072313403A6913433B61FB683A69DA600F
:1057480017E07B68DBB21A000C4B9200D3581900A3
:10575800B868FAF7D1FC03001A003B6A5B08D31853
:10576800396A1800FAF7C8FC03009BB21A00FB68F4
:10577800DA60C046BD4606B080BDC0467459000810
:10578800F0FF000090B58BB002AF786039601F233E
:10579800FB1801221A700023BB617B681800FFF711
:1057A8004BFF031E53D17B681B682C4A1A403B6889
:1057B80099683B681B6919433B685B6919433B68F7
:1057C800DB690B431A437B681A603B68DA687B68BD
:1057D80011001800FFF754FF3B689A697B681100B5
:1057E8001800FFF761FF7B681D4A934205D103202B
:1057F800FFF73EFE0300BB610BE07B68194A93424A
:1058080007D10C243B191800FFF714FE3B199B68BD
:10581800BB61BB69002B13D03B685B68002B0FD0C2
:105828001F23FB1800221A703B681A683B68DC6962
:105838003B685B68B969786800932300FFF748FF05
:105848003B681A687B6811001800FFF706FF1F23E2
:10585800FB181B781800BD4609B090BDF369FFEF2F
:10586800003801400044004003008218934200D1F0
:10587800704719700133F9E770B500260C4C0D4DCF
:10588800641BA410A64209D1002600F023F80A4C94
:105898000A4D641BA410A64205D170BDB300EB5895
:1058A80098470136EEE7B300EB5898470136F2E720
:1058B800A4590008A4590008A8590008A4590008C8
:1058C800002310B59A4200D110BDCC5CC4540133FA
:1058D800F8E70000F8B5C046F8BC08BC9E4670471B
:0C58E800F8B5C046F8BC08BC9E467047EE
:1058F400616263640000000020202020202020201A
:105904005449434B20202020415332305032202030
:105914000000000000000000000000000000000083
:105924000000000000000000000000000000000073
:105934000100000002000000030000000400000059
:105944000600000007000000080000000900000035
:105954000000000000000000000000000000000043
:105964000100000002000000030000000400000029
:105974000100000002000000040000000600000016
:10598400080000000A0000000C00000010000000E5
:105994002000000040000000800000000001000022
:0459A400E100000816
:0459A800B90000083A
:0C59AC000024F4000400000001000000D2
:04000005080029F9CD
:00000001FF
