:020000040800F2
:10000000002000204D200008B7120008C51200088B
:1000100000000000000000000000000000000000E0
:10002000000000000000000000000000D3120008E3
:100030000000000000000000DD120008E9120008C6
:100040009D200008000000009D2000089D20000861
:100050009D2000089D2000089D2000089D2000088C
:1000600000000000911300089D2000089D2000085A
:100070009D200008A91300089D2000080000000032
:100080009D20000800000000000000009D200008E6
:10009000000000009D2000089D2000089D20000811
:1000A0009D2000089D2000089D2000089D2000083C
:0800B000C1130008000000006C
:1000B80010B5064C2378002B07D1054B002B02D036
:1000C800044800E000BF0123237010BD0C0000208D
:1000D80000000000D4620008044B10B5002B03D0C8
:1000E8000349044800E000BF10BDC04600000000FE
:1000F80010000020D4620008002243088B4274D309
:1001080003098B425FD3030A8B4244D3030B8B4210
:1001180028D3030C8B420DD3FF22090212BA030C19
:100128008B4202D31212090265D0030B8B4219D3FA
:1001380000E0090AC30B8B4201D3CB03C01A52411A
:10014800830B8B4201D38B03C01A5241430B8B4262
:1001580001D34B03C01A5241030B8B4201D30B034B
:10016800C01A5241C30A8B4201D3CB02C01A524172
:10017800830A8B4201D38B02C01A5241430A8B4235
:1001880001D34B02C01A5241030A8B4201D30B021E
:10019800C01A5241CDD2C3098B4201D3CB01C01A38
:1001A800524183098B4201D38B01C01A5241430942
:1001B8008B4201D34B01C01A524103098B4201D330
:1001C8000B01C01A5241C3088B4201D3CB00C01A9D
:1001D800524183088B4201D38B00C01A5241430815
:1001E8008B4201D34B00C01A5241411A00D201463A
:1001F800524110467047FFE701B5002000F006F8AD
:1002080002BDC0460029F7D076E770477047C04660
:1002180080B582B000AF0200FB1D1A70FB1D1B7871
:100228007F2B09D8FB1D1B781A001F231A40044B8B
:10023800012191400A001A60C046BD4602B080BD47
:1002480000E100E090B583B000AF02003960FB1D0B
:100258001A70FB1D1B787F2B28D82F4AFB1D1B7893
:100268005BB29B08C0339B009B58FA1D12781100A3
:1002780003220A40D200FF2191400A00D2431A40CB
:1002880011003B689B01FF221A40FB1D1B781800D8
:1002980003230340DB009A401F48FB1D1B785BB219
:1002A8009B080A43C0339B001A5031E01B4AFB1DD0
:1002B8001B7819000F230B40083B9B0806339B0053
:1002C800D31804331B68FA1D1278110003220A4060
:1002D800D200FF2191400A00D2431A4011003B6826
:1002E8009B01FF221A40FB1D1B78180003230340C3
:1002F800DB009A400948FB1D1B781C000F23234094
:10030800083B9B080A4306339B00C31804331A6052
:10031800C046BD4603B090BD00E100E000ED00E03E
:1003280080B582B000AF78607B681B68034A1A40CA
:100338007B681A60C046BD4602B080BDFFFFFFDF84
:1003480080B586B000AF78603960EFF31083BB608A
:10035800BB687B610123FB60FB6883F31088C046A0
:100368007B689B68DB00DA083B685B071A437B689D
:100378009A607B693B613B6983F31088C046C0463D
:10038800BD4606B080BD000080B586B000AF78607D
:100398003960EFF31083BB60BB687B610123FB60AE
:1003A800FB6883F31088C0467B689B68084A1A403C
:1003B8003B685B061A437B689A607B693B613B69D3
:1003C80083F31088C046C046BD4606B080BDC0460F
:1003D800FFFFFFF180B582B000AF78607B685B6893
:1003E800074A1A407B685A607B689B682A229343B5
:1003F8001A007B689A60C046BD4602B080BDC04600
:10040800FFB7FFFF80B586B000AF7860EFF31083C9
:10041800BB60BB687B610123FB60FB6883F31088CA
:10042800C0467B681B6820221A437B681A607B6978
:100438003B613B6983F31088C046C046BD4606B0A1
:1004480080BD80B586B000AF7860EFF31083BB60E5
:10045800BB687B610123FB60FB6883F31088C0469F
:100468007B689B6801221A437B689A607B693B61C1
:100478003B6983F31088C046C046BD4606B080BDC0
:1004880080B584B000AF7860074BD96B064B7A68AB
:100498000A43DA63044BDB6B7A681340FB60FB6842
:1004A800C046BD4604B080BD0010024080B584B08F
:1004B80000AF7860074B596B064B7A680A435A635A
:1004C800044B5B6B7A681340FB60FB68C046BD4613
:1004D80004B080BD0010024080B500AF2B4B002255
:1004E8001A802B4BFA2252001A802A4B00221A70CB
:1004F800294B0A221A70294B00221A80284B002205
:100508001A80284B00221A70274B00221A70274B9A
:1005180001221A70264B00221A80264B00221A70DC
:10052800254B00221A70254B02221A70244B0222F6
:100538001A70244B00221A70234B00221A70234B86
:100548000A220021180005F08BFE214B00221A70A8
:10055800204B00221A70204B00221A701F4B1122C8
:100568000021180005F07CFE1D4B00221A701D4B5F
:1005780000221A701C4B00221A701C4B08223021D2
:10058800180005F06DFEC046BD4680BD680100201C
:100598006A0100206C0100206D010020700100201C
:1005A80072010020740100207501002076010020EE
:1005B800780100207A0100207B0100207C010020C6
:1005C8007D0100207E0100207F01002080010020A5
:1005D8008A0100208B0100208C010020900100205E
:1005E800A1010020A2010020A3010020A4010020F5
:1005F80090B589B000AF0C243B19180014231A00D9
:10060800002105F02DFE6C4B5A6B6B4B01210A4300
:100618005A63694B5B6B01221340BB60BB68664B36
:100628005A6B654B02210A435A63634B5B6B022288
:1006380013407B607B68604B5A6B5F4B04210A4315
:100648005A635D4B5B6B042213403B603B68A023FD
:10065800DB0500222021180004F06BF83B1920224A
:100668001A603B1901225A603B1900229A603B1913
:100678000022DA603A19A023DB051100180003F004
:1006880007FE80239B004D480022190004F051F812
:100698003B19802292001A603B1901225A603B19CB
:1006A80000229A603B190022DA603B19434A19007C
:1006B800100003F0EDFDA023DB0500220221180045
:1006C80004F037F8A023DB0500221021180004F0FD
:1006D80030F8A023DB0500224021180004F029F897
:1006E800A023DB0500228021180004F022F88023D3
:1006F8001901A023DB050022180004F01AF8802352
:100708005901A023DB050022180004F012F83B1958
:100718002B4A1A603B1901225A603B1900229A6041
:100728003B190222DA603A19A023DB0511001800F0
:1007380003F0AEFD214B00220821180003F0F9FF59
:100748001E4B00228021180003F0F3FF1B4B0022F0
:100758000121180003F0EDFF3B1989221A603B19AB
:1007680001225A603B1900229A603B190222DA6082
:100778003B19124A1900100003F08AFD80231B025E
:1007880010480022190003F0D4FF3B1980221202FE
:100798001A603B1901225A603B1900229A603B19E2
:1007A8000222DA603B19074A1900100003F070FDB5
:1007B800C046BD4609B090BD00100240000400507C
:1007C800D21800000008005080B500AF0B4B0C4A4F
:1007D8001A600A4B02225A60084B0A4ADA60074B31
:1007E800084A9A60054B180003F0DCFF031E01D08D
:1007F80000F0F6FAC046BD4680BDC0460C01002098
:1008080000300040FF0F000080B582B000AF0C4BF5
:100818009A6B0B4B01210A439A63094B9B6B01228C
:1008280013407B607B6800220221092002F0F2FF5E
:10083800092003F004F8C046BD4602B080BDC0469A
:100848000010024080B584B000AF3B1D18000C2397
:100858001A00002105F004FD374B384A1A60364B60
:100868008022D2055A60344B00229A60324B002213
:10087800DA60314B00221A612F4B04225A612E4B49
:1008880000221A762C4B00225A762B4B00229A769D
:10089800294B0122DA61284B202200219954264B4A
:1008A8008022D2005A62244B8022D2009A62224BC4
:1008B8002C2201219954204B00221A631E4B072237
:1008C8005A631D4B07229A631B4B3C220021995403
:1008D800194B0022DA64184B180001F001FE031EC0
:1008E80001D000F07DFA144B180002F0B1FD031E90
:1008F80001D000F075FA3B1D01221A603B1D002251
:100908005A603B1D00229A603A1D0B4B11001800DB
:1009180002F076F9031E01D000F062FA0849064B8E
:100928000122180002F05CF8031E01D000F058FA0A
:10093800C046BD4604B080BD280000200024014008
:100948007001002080B588B000AF1023FB18180094
:1009580010231A00002105F083FC3B1D18000C230E
:100968001A00002105F07CFC294B2A4A1A602A4B00
:100978001B682A491800FFF7BFFB03005A1E244BC7
:100988005A60234B00229A60214B254ADA60204B9B
:1009980000221A611E4B00225A611D4B80229A6167
:1009A8001B4B180004F03AFC031E01D000F018FAA3
:1009B80010217B18802252011A607A18144B1100FA
:1009C800180004F007FE031E01D000F009FA3B1DD1
:1009D80020221A603B1D802292035A603B1D002290
:1009E8009A603A1D0A4B1100180005F007F8031E1B
:1009F80001D000F0F5F9064B180004F067FC031E5F
:100A080001D000F0EDF9C046BD4608B080BDC04633
:100A18001C010020002C01400000002040420F0073
:100A28009F86010090B58FB000AF18243B191800BD
:100A380020231A00002105F013FC3B00180018239E
:100A48001A00002105F00CFC80239B021800FFF718
:100A580017FD0120FFF72AFD3B0004221A603B0026
:100A680002225A603B0003229A603B000022DA60AF
:100A78003B0001221A613B0001225A613A00A0237F
:100A8800DB051100180005F0ECF83B0008221A609D
:100A98003B0002225A603B0003229A603B0000227E
:100AA800DA603B0001221A613B0001225A613A00D8
:100AB800A023DB051100180005F0D3F801211C2044
:100AC800FFF7C0FB1C20FFF7A3FB3B1900221A60AD
:100AD8003B19E12252025A6021007B1800229A60D9
:100AE8007B180022DA607B1800221A617B180C221E
:100AF8005A617B1800229A617B180022DA617B1800
:100B0800114A1900100005F039FB0F4B002118009D
:100B1800FFF716FC0C4B00211800FFF735FC0A4BB9
:100B28001800FFF7FDFB084B1800FFF753FC064BB6
:100B38001800FFF767FC044B1800FFF782FCC0465B
:100B4800BD460FB090BDC0460044004080B582B09D
:100B580000AF78607B681B6801221A437B681A60C3
:100B6800C046BD4602B080BD90B58BB000AF3B001B
:100B7800180003F0DBFA3B009B693B623A6A80236A
:100B88005B0413402AD003F0B3F903F0D5F93B0016
:100B980004221A603B009B69124A1A403B009A6182
:100BA8001F23FC183B00180003F03CFA03002370D5
:100BB8000D4B7B62C0467B6A5A1E7A62002BFAD1C3
:100BC800A023DB052021180003F0D0FD80239B0023
:100BD800064A1900100003F0C9FDE9E7C046BD4602
:100BE8000BB090BDFFFFFFFE818909000004005093
:100BF80080B500AF01F050FAFFF76EFCFFF7F8FC84
:100C080000F090F8FFF7B0FFFFF7DEFD0A2001F0D3
:100C1800C9FAFFF7F9FDFFF795FEFFF713FEFFF797
:100C280001FF244B1800FFF791FF234B1B78002B83
:100C380006D0224B180003F007FE1F4B00221A7043
:100C48001F4B1A881F4B1B889A4230D31C4B00221B
:100C58001A801D4B1B78002B0DD01B4B1B78013BBA
:100C6800DAB2194B1A70184B1B78002B03D1154BAD
:100C7800FA2252001A80154B1B781A0008231340D9
:100C880005D0A023DB052021180003F06FFD0F4BD2
:100C98001B781A000223134006D080239B000C4ABD
:100CA8001900100003F062FD034B01221A7000F0D6
:100CB800E3FCBAE700440040750100200C01002065
:100CC800680100206A0100206C0100206D010020ED
:100CD8000004005080B584B000AF0200BB1D1A802C
:100CE8000E23FB1800221A8010E00E23FB180022A6
:100CF8001A8006E0C0460E217B181A887B1801323C
:100D08001A800E23FB181B88202BF3D9BB1D1B88C8
:100D1800BA1D591E1180002BE7D1C046C046BD46FA
:100D280004B080BD90B593B000AF14243B191800EF
:100D380034231A00002105F093FA3B1D18001023F4
:100D48001A00002105F08CFA80239B00180003F09C
:100D58008BFD3B1902221A603B1980225200DA608F
:100D680021007B1800221A617B1840225A617B18E7
:100D780001229A617B180222DA617B1802221A6228
:100D88007B1800225A627B1808229A627B188022FC
:100D98009202DA627B18802292051A637B18180087
:100DA80003F0A2FD031E01D000F01AF83B1D072234
:100DB8001A603B1D02225A603B1D00229A603B1DAF
:100DC8000022DA603B1D0221180004F09DF8031E82
:100DD80001D000F005F8C046BD4613B090BD000034
:100DE80080B582B000AF72B6C046A023DB050022F2
:100DF8002021180003F09DFC80239B000D48002251
:100E0800190003F096FC0C4B7B60C0467B685A1EA9
:100E18007A60002BFAD1A023DB052021180003F00B
:100E2800A5FC80239B00034A1900100003F09EFCD8
:100E3800E9E7C04600040050C0C4040080B582B091
:100E480000AF0F4B1A6C0E4B01210A431A640C4B6E
:100E58001B6C012213407B607B68094BDA6B084BE3
:100E6800802149050A43DA63054BDA6B80235B0569
:100E780013403B603B68C046BD4602B080BDC046DB
:100E88000010024090B58BB000AF786014243B1975
:100E9800180014231A00002105F0E2F97B681B688A
:100EA800324A93425DD1324B1A6C314B802149034F
:100EB8000A431A642E4B1A6C80235B0313403B6170
:100EC8003B692B4B5A6B2A4B01210A435A63284B27
:100ED8005B6B01221340FB60FB683B1901221A601F
:100EE8003B1903225A603B1900229A603A19A02341
:100EF800DB051100180003F0CBF91E4B1E4A1A60DF
:100F08001C4B05225A601B4B00229A60194B002289
:100F1800DA60184B80221A61164B802252005A61FF
:100F2800144B8022D2009A61124B2022DA61114BB5
:100F3800802252011A620F4B180002F0ADFC031E0A
:100F480001D0FFF74DFF7B680A4A1A65094B7A689A
:100F58009A62002202210C2002F05CFC0C2002F0B4
:100F68006EFCC046BD460BB090BDC0460024014093
:100F780000100240B00000200800024080B582B096
:100F880000AF7860034B1A88034B1A80C046BD46F1
:100F980002B080BD700100207201002080B582B0CF
:100FA80000AF78600C4B180001F0A8FD0B4B18003F
:100FB80004F0DAF9084B180001F06AFC084B01222A
:100FC8001A700120FFF786FEFFF7BCFCFFF73AFC1A
:100FD800C046BD4602B080BD280000201C0100208C
:100FE8007401002080B582B000AF78607B681B6810
:100FF8000D4A934213D10D4B1A6C0C4B0C490A4005
:101008001A64A023DB050121180003F0A5FA7B6808
:101018001B6D180002F0CAFC0C2002F020FCC04630
:10102800BD4602B080BDC046002401400010024009
:10103800FFFFEFFF80B584B000AF78607B681B6866
:101048000E4A934215D10E4B1A6C0D4B80210901A3
:101058000A431A640A4B1A6C80231B011340FB6075
:10106800FB68002202210D2002F0D4FB0D2002F0C3
:10107800E6FBC046BD4604B080BDC046002C01401A
:101088000010024080B500AFBFF34F8FC046044B3D
:10109800044ADA60BFF34F8FC046C046FDE7C0463A
:1010A80000ED00E00400FA0580B582B000AF78607A
:1010B8007B68DB6902221340022B01D1012300E087
:1010C80000231800BD4602B080BD80B582B000AFD5
:1010D80078607B68DB6904221340042B01D101236B
:1010E80000E000231800BD4602B080BD80B582B084
:1010F80000AF78607B68DB6908221340082B01D1B8
:10110800012300E000231800BD4602B080BD80B571
:1011180082B000AF78607B68DB6920221340202B07
:1011280001D1012300E000231800BD4602B080BDB4
:1011380080B582B000AF78607B68DB69802213409D
:10114800802B01D1012300E000231800BD4602B026
:1011580080BD80B582B000AF78607B68DA69802393
:101168009B011A4080239B019A4201D1012300E090
:1011780000231800BD4602B080BD80B582B000AF24
:1011880078607B6802221A62C046BD4602B080BD04
:1011980080B582B000AF78607B6804221A62C046CE
:1011A800BD4602B080BD80B582B000AF78607B6874
:1011B80008221A62C046BD4602B080BD80B582B022
:1011C80000AF78607B68802292011A62C046BD46F3
:1011D80002B080BD80B586B000AF7860EFF31083B1
:1011E800BB60BB687B610123FB60FB6883F31088ED
:1011F800C0467B681B68802293431A007B681A608C
:101208007B693B613B6983F31088C046C046BD4695
:1012180006B080BD80B582B000AF78607B681B687F
:1012280020221340202B01D1012300E000231800C5
:10123800BD4602B080BD80B582B000AF78607B68E3
:101248001B6880221340802B01D1012300E000237A
:101258001800BD4602B080BD80B582B000AF78608E
:101268007B689B6801221340012B01D1012300E018
:1012780000231800BD4602B080BD80B582B000AF23
:1012880078607B685B6ADBB21800BD4602B080BD3F
:1012980080B582B000AF78600A00FB1C1A70FB1C96
:1012A8001A787B689A62C046BD4602B080BD80B598
:1012B80000AFFFF795FDC046BD4680BD80B500AFC5
:1012C800FFF78EFDC046BD4680BD80B500AFC04665
:1012D800BD4680BD80B500AFC046BD4680BD00009C
:1012E80080B500AF00F042FF204B1B8801339AB253
:1012F8001E4B1A801E4B1B78002B12D01C4B1B78E0
:10130800013BDAB21A4B1A70194B1B78002B08D123
:10131800002000F07DFE174B00221A70164B0022A9
:101328001A70164B1B78002B0CD0144B1B78013B02
:10133800DAB2124B1A70114B1B78002B02D1104BEA
:1013480000221A700F4B1B88002B0BD00D4B1B88EB
:10135800013B9AB20B4B1A800A4B1B88002B01D118
:10136800FFF790FEC046BD4680BDC046680100201C
:101378008A0100208B0100207F010020A3010020AA
:10138800A20100207801002080B500AF034B1800AF
:1013980002F06CFCC046BD4680BDC046B0000020CF
:1013A80080B500AF034B180004F00CF8C046BD46EA
:1013B80080BDC0461C01002090B583B000AFFB1D66
:1013C80000221A70704B1800FFF735FF031E27D054
:1013D8006D4B1800FFF7ACFE031E21D06B4B1B783A
:1013E800102B05D8694B1B780133DAB2674B1A709A
:1013F800664B1A78664B1B789A4204D3624B1800E6
:10140800FFF7E8FE0CE0614B1B781A00614B9B5C10
:101418005D4A19001000FFF73BFF5F4B02221A706C
:10142800594B1800FFF718FF031E33D0564B18000E
:10143800FFF74BFE031E06D0534B1800FFF7A8FE1C
:10144800042000F0E5FD504B1800FFF72DFE031EA9
:1014580006D04D4B1800FFF790FE052000F0D8FD90
:10146800494B1800FFF742FE031E06D0464B1800F2
:10147800FFF799FE062000F0CBFD434B1800FFF75D
:1014880068FE031E06D0404B1800FFF797FE0720A2
:1014980000F0BEFD3C4B1800FFF739FE031E00D1DB
:1014A8006DE0394B1800FFF7B5FE031E67D0FC1D31
:1014B800354B1800FFF7E1FE03002370374B1B780C
:1014C800002B59D1364B02221A70364B1B78190063
:1014D800354BFA1D12785A54324B1B780133DAB265
:1014E800304B1A70FB1D1B780D2B1BD12D4B1B7815
:1014F8000A2B0AD12A4B00221A702A4B1A78274B3A
:101508001A70284B00221A7039E0022000F080FD82
:10151800234B00221A70214B00221A70214B002203
:101528001A702CE0FB1D1B782F2B07D9FB1D1B788D
:101538005A2B03D8FB1D1B78402B0CD1032000F03D
:1015480067FD174B00221A70144B00221A70154BB6
:1015580000221A7013E0134B1B78092B0FD90220B5
:1015680000F056FD0E4B00221A700C4B00221A7028
:101578000C4B00221A7002E0012000F049FDC04621
:10158800BD4603B090BDC046004400408C01002019
:10159800A101002090010020A30100208B01002060
:1015A8008A0100207F0100208001002080B500AF63
:1015B800C046BD4680BD80B582B000AF78607B680C
:1015C800DB6940221340402B01D1012300E00023B6
:1015D8001800BD4602B080BD80B586B000AF786007
:1015E800EFF31083BB60BB687B610123FB60FB6882
:1015F80083F31088C0467B681B6880221A437B6887
:101608001A607B693B613B6983F31088C046C0461A
:10161800BD4606B080BD80B582B000AF78600A00D4
:10162800FB1C1A70FB1C1A787B689A62C046BD4680
:1016380002B080BD80B582B000AF78600A00FB1CA4
:101648001A7006E07B680A211800FEF755FD0300B2
:101658007B60FB1C1B78FA1C591E1170002BF1D102
:101668007B680A211800FEF7CDFD0B00DBB21800DD
:10167800BD4602B080BD000090B585B000AFE04B1C
:101688001B78002B01D100F093FCDE4B1B78002B5C
:1016980001D000F08DFC0F23FB1800221A70DA4BE2
:1016A80004221A70D94BFA221A80D94B1B78413B75
:1016B800142B00D983E29A00D64BD3181B689F4697
:1016C8000F23FB1801221A707AE2D14B5B782F2B7B
:1016D80000D875E2CE4B5B78332B00D970E2CC4B47
:1016E8009B782F2B00D86BE2C94B9B78332B00D902
:1016F80066E2C74BDB782F2B00D861E2C44BDB785E
:10170800332B00D95CE2C24B1B792F2B00D857E250
:10171800BF4B1B79352B00D952E2BD4B5B785B1070
:10172800DBB201221340DAB2BB4B1A70B84B5B78BC
:1017380001221340DAB2B94B1A70B54B9B780322D9
:101748001340DAB2B64B1A70B14BDB780322134060
:10175800DAB2B44B1A70AE4B1B7907221340DAB2D7
:10176800B14B1A70AC4B1B78002B08D080231901A1
:10177800A023DB050122180002F0DBFF07E080232D
:101788001901A023DB050022180002F0D2FFA34BA9
:101798001B78002B08D080235901A023DB050122E8
:1017A800180002F0C6FF07E080235901A023DB05DB
:1017B8000022180002F0BDFF0A2000F0F3FC984B4D
:1017C8001B78032B2CD01EDC002B02D0012B0DD054
:1017D80019E0964B01220821180002F0AAFF934B4A
:1017E80000228021180002F0A4FF26E08F4B00227F
:1017F8000821180002F09DFF8C4B0122802118005F
:1018080002F097FF19E0894B00220821180002F026
:1018180090FF864B00228021180002F08AFF0CE01E
:10182800824B01220821180002F083FF7F4B01221E
:101838008021180002F07DFFC0460A2000F0B2FCAB
:10184800784B1B78032B2FD020DC002B02D0012BE8
:101858000ED01BE080231B0275480122190002F0FC
:1018680068FF724B00220121180002F062FF29E094
:1018780080231B026E480022190002F05AFF6B4BAE
:1018880001220121180002F054FF1BE080231B02F3
:1018980067480022190002F04CFF644B0022012126
:1018A800180002F046FF0DE080231B026048012269
:1018B800190002F03EFF5D4B01220121180002F0E1
:1018C80038FFC0460A2000F06DFC574B1B78052BEB
:1018D80004D89A00574BD3181B689F46A023DB05F2
:1018E80000221021180002F024FFA023DB050022AB
:1018F8004021180002F01DFFA023DB0500228021F3
:10190800180002F016FFA023DB05002202211800B0
:1019180002F00FFFADE0A023DB0500221021180024
:1019280002F007FFA023DB0500224021180002F087
:1019380000FFA023DB0500228021180002F0F9FE39
:10194800A023DB0501220221180002F0F2FE90E03C
:10195800A023DB0501221021180002F0EAFEA023D3
:10196800DB0500224021180002F0E3FEA023DB057E
:1019780000228021180002F0DCFEA023DB050122F2
:101988000221180002F0D5FE73E0A023DB05002237
:101998001021180002F0CDFEA023DB050122402112
:1019A800180002F0C6FEA023DB05002280211800E3
:1019B80002F0BFFEA023DB0501220221180002F07D
:1019C800B8FE56E0A023DB0501221021180002F022
:1019D800B0FEA023DB0501224021180002F0A9FE79
:1019E800A023DB0500228021180002F0A2FEA0231C
:1019F800DB0501220221180002F09BFE39E0C046F7
:101A08008B010020A20100206C0100206A01002047
:101A1800800100204C6300087A0100207B0100202F
:101A28007C0100207D0100207E0100200004005080
:101A380000080050A0630008A023DB050122102144
:101A4800180002F076FEA023DB05002240211800D2
:101A580002F06FFEA023DB0501228021180002F0AE
:101A680068FEA023DB0500220221180002F061FEB7
:101A7800C0460A2000F096FB0F23FB1801221A70BB
:101A88009EE00023BB600EE0BB680133D44AD35C00
:101A9800302B05D0BB680133D14AD35C312B06D13A
:101AA800BB680133BB60BB68032BEDDD00E0C046BB
:101AB800CB4B5B78DB00DBB208221340DAB2C94BB0
:101AC8001A70C74B9B789B005BB2042213405AB232
:101AD800C44B1B785BB213435BB2DAB2C14B1A70CA
:101AE800BF4BDB785B005BB2022213405AB2BD4B9E
:101AF8001B785BB213435BB2DAB2BA4B1A70B84BBD
:101B08001B795BB2012213405AB2B64B1B785BB209
:101B180013435BB2DAB2B34B1A70B24B1B781A009C
:101B28000423134007D0A023DB050022202118003E
:101B380002F0FFFD06E0A023DB05012220211800AA
:101B480002F0F7FDA74B1B781A000123134007D0BA
:101B580080239B00A4480022190002F0EAFD06E059
:101B680080239B00A0480122190002F0E2FD0F2308
:101B7800FB1801221A7023E0994B5B78312B02D1B4
:101B88009A4B00221A70964B9B78312B02D1984BB6
:101B980000221A70924BDB783A2B06D1904B1B79B6
:101BA800352B02D1934BC8221A800F23FB1802222F
:101BB8001A7005E00F23FB1803221A7000E0C046D4
:101BC8000F243B191B78002B00D1EEE18A4B112220
:101BD8001A708A498A4B0322180004F06DFB3B19DE
:101BE8001B78013BDBB25BB2302213435BB2DAB243
:101BF800834BDA7001210120FFF71CFD03001A0056
:101C080030231343DAB27E4B1A7100210120FFF70B
:101C180011FD03001A0030231343DAB2784B5A71CE
:101C280001210020FFF706FD03001A0030231343AB
:101C3800DAB2734B9A7100210020FFF7FBFC030016
:101C48001A0030231343DAB26D4BDA713B191B7853
:101C5800032B20D16B4B1A78694B1A72694B5A784F
:101C6800674B5A72674B9A78654B9A72654BDA786C
:101C7800634BDA72634B1A79614B1A73614B5A7969
:101C88005F4B5A735F4B9A795D4B9A735D4BDA7968
:101C98005B4BDA7375E10F23FB181B78022B00D01E
:101CA8001CE100237B60514B1B781B077A681343A8
:101CB8007B604F4B1B781B067A6813437B6080233D
:101CC8005A01A023DB051100180002F015FD0300DE
:101CD800012B02D180239B0000E000231A007B68BF
:101CE80013437B6080231A01A023DB051100180031
:101CF80002F002FD0300012B02D180235B0000E00B
:101D080000231A007B6813437B60A023DB05802136
:101D1800180002F0F1FC0300012B01D1802300E040
:101D280000231A007B6813437B60A023DB05402156
:101D3800180002F0E1FC0300012B01D1402300E070
:101D480000231A007B6813437B60A023DB05102166
:101D5800180002F0D1FC0300012B01D1202300E080
:101D680000231A007B6813437B60A023DB05022154
:101D7800180002F0C1FC0300012B01D1102300E080
:101D880000231A007B6813437B60174B012118005E
:101D980002F0B2FC0300012B01D1082300E000236C
:101DA8001A007B6813437B6080231B02164A1900C4
:101DB800100002F0A1FC0300012B01D1042300E074
:101DC80000231A007B6813437B60074B80211800AF
:101DD80002F092FC0300012B18D1022317E0C04641
:101DE800800100206D0100200004005074010020D3
:101DF8007601002078010020A10100208501002043
:101E080090010020A40100200008005000231A00BF
:101E18007B6813437B60704B0821180002F06CFC50
:101E28000300013B5A425341DBB21A007B6813435B
:101E38007B607B681B0FDBB230221343DAB2674B3F
:101E48001A727B681B0EDBB20F221340DBB2302202
:101E58001343DAB2614B5A727B681B0DDBB20F2257
:101E68001340DBB230221343DAB25C4B9A727B68C0
:101E78001B0CDBB20F221340DBB230221343DAB261
:101E8800564BDA727B681B0BDBB20F221340DBB2B6
:101E980030221343DAB2514B1A737B681B0ADBB248
:101EA8000F221340DBB230221343DAB24B4B5A7382
:101EB8007B681B09DBB20F221340DBB230221343CD
:101EC800DAB2464B9A737B68DBB20F221340DBB25F
:101ED80030221343DAB2414BDA7352E0404B1B789D
:101EE8005B005AB23F4B1B785BB213435BB23022A4
:101EF80013435BB2DAB2394B1A723B4B1B78302270
:101F08001343DAB2354B5A72384B1B7830221343DD
:101F1800DAB2324B9A72364B1B7830221343DAB25C
:101F28002E4BDA72334B1B7830221343DAB22B4B29
:101F38001A73314B1B881B0A9BB25BB20F221340EA
:101F48005BB2302213435BB2DAB2244B5A732A4B8A
:101F58001B881B099BB25BB20F2213405BB2302275
:101F680013435BB2DAB21D4B9A73234B1B885BB2E7
:101F78000F2213405BB2302213435BB2DAB2174B25
:101F8800DA73164B0D221A741C4B00221A701C4B64
:101F980001221A70114B1B781A4A19001000FFF71A
:101FA8003AFB184B1800FFF717FB174B00221A7063
:101FB800164B1B78002B0BD0124B1800FFF7FBFABF
:101FC800031E05D0114B00221A700D4B00221A7007
:101FD800C046BD4605B090BD0004005090010020E9
:101FE8007A0100207B0100207C0100207D01002077
:101FF8007E0100206D010020720100208C0100206C
:10200800A2010020004400408B010020A301002011
:1020180080B582B000AF0200FB1D1A70FB1D1B7853
:10202800074AD35C3E2B07D8FB1D1B78044AD25CB9
:102038000132D1B2024AD154C046BD4602B080BD79
:10204800A40100200D488546FFF7B0FA0C480D4959
:102058000D4A002302E0D458C4500433C4188C42FB
:10206800F9D30A4A0A4C002301E013600432A24261
:10207800FBD304F0FDF8FEF7BBFDFEE700200020CF
:10208800000000200C000020F06300080C00002075
:10209800CC010020FEE7000080B582B000AFFB1D38
:1020A80000221A700B4B1A680A4B802149000A4318
:1020B8001A60032000F010F8031E03D0FB1D012254
:1020C8001A7001E0FEF7BAFEFB1D1B781800BD462A
:1020D80002B080BD0020024090B585B000AF7860A6
:1020E8000F23FB1800221A701D4B1B78002B2BD0D6
:1020F8001C4B1C681A4B1B781900FA239800FDF733
:10210800FBFF030019002000FDF7F6FF030018008D
:1021180001F0B5FB031E12D17B68032B0AD879683E
:1021280001235B420022180001F074FB0E4B7A6811
:102138001A600DE00F23FB1801221A7008E00F2324
:10214800FB1801221A7003E00F23FB1801221A70F2
:102158000F23FB181B781800BD4605B090BDC0467C
:1021680008000020000000200400002080B500AF17
:10217800054B1B781A00054B1B68D218034B1A60D5
:10218800C046BD4680BDC04608000020AC01002006
:1021980080B500AF024B1B681800BD4680BDC04625
:1021A800AC01002080B584B000AF7860FFF7F0FF85
:1021B8000300BB607B68FB60FB68013305D00A4BFA
:1021C8001B781A00FB689B18FB60C046FFF7E0FF0E
:1021D8000200BB68D31AFA689A42F7D8C046C046CC
:1021E800BD4604B080BDC0460800002080B582B05E
:1021F80000AF786039607B681B68054A1A403B6805
:102208001A437B681A60C046BD4602B080BDC0460E
:10221800FFFF3FFE80B582B000AF78607B681A6828
:10222800E0235B0413401800BD4602B080BD80B5B2
:1022380084B000AFF860B9607A60FB685B69BA681F
:1022480004210A40072191400A00D2431A40BB6882
:1022580004210B40796899400B001A43FB685A61C6
:10226800C046BD4604B080BD80B582B000AF78607E
:1022780039607B685B693A6804210A40072191400C
:102288000A001A403B6804210B40DA40130018008A
:10229800BD4602B080BD80B582B000AF78607B6873
:1022A800DA68C0231B01134001D1012300E0002399
:1022B8001800BD4602B080BD80B584B000AFF8609C
:1022C800B9607A60FB689B6ABA681F210A400F21CF
:1022D80091400A00D2431A407B689B0E0F21194097
:1022E800BB681F20034099400B001A43FB689A62A1
:1022F800C046BD4604B080BD80B582B000AF7860EE
:1023080039607B689A6A3B685B035B0B1A437B689E
:102318009A62C046BD4602B080BD80B582B000AFAB
:10232800786039607B689B6A3A685203520BD243E3
:102338001A407B689A62C046BD4602B080BD000064
:1023480080B584B000AFF860B9607A60FB685B69FB
:10235800BA681202D2431A40BB681B0279680B4064
:1023680004490B401A43FB685A61C046BD4604B095
:1023780080BDC04600FFFF0780B582B000AF78601F
:102388007B689B68054A1340802252051A437B6884
:102398009A60C046BD4602B080BDC046E8FFFF6FE8
:1023A80080B582B000AF78607B689B68034A1A40AA
:1023B8007B689A60C046BD4602B080BDE8FFFF6FEB
:1023C80080B582B000AF78607B689A6880235B052F
:1023D8001A4080235B059A4201D1012300E00023C3
:1023E8001800BD4602B080BD80B582B000AF7860ED
:1023F8007B689B68044A134001221A437B689A60F1
:10240800C046BD4602B080BDE8FFFF7F80B582B000
:1024180000AF78607B689B68044A134002221A4325
:102428007B689A60C046BD4602B080BDE8FFFF7F6A
:1024380080B582B000AF78607B689B68012213404A
:10244800012B01D1012300E000231800BD4602B092
:1024580080BD80B582B000AF78607B689B6802223F
:102468001340022B01D1012300E000231800BD46D0
:1024780002B080BD80B582B000AF78607B689B6891
:10248800044A134004221A437B689A60C046BD463A
:1024980002B080BDE8FFFF7F80B582B000AF7860F2
:1024A8007B689B68044A134010221A437B689A6031
:1024B800C046BD4602B080BDE8FFFF7F80B582B050
:1024C80000AF78607B689B6804221340042B01D11D
:1024D800012300E000231800BD4602B080BD0000C3
:1024E80080B588B000AF78601F23FB1800221A70EF
:1024F8000023BB6100237B610023FB607B68002B0A
:1025080001D101239FE17B689B6D002B2AD17B6859
:10251800CF4A5A667B68CF4A9A667B68CE4ADA66A3
:102528007B68CE4A1A677B68CD4A5A677B68CD4A72
:102538009A677B68CC4ADA677B6880229B58002BB5
:1025480003D17B688021C94A5A507B6880229B58F6
:102558007A68100098477B680022DA657B68542205
:10256800002199547B681B681800FFF729FF031E98
:1025780015D17B681B681800FFF7FEFEBC4B1B6873
:10258800BC491800FDF7B8FD030001335B00FB6090
:1025980002E0FB68013BFB60FB68002BF9D17B681C
:1025A8001B681800FFF70CFF031E0FD17B689B6D9B
:1025B80010221A437B689A657B68DB6D01221A43F7
:1025C8007B68DA651F23FB1801221A707B681B6879
:1025D8001800FFF773FF03003B617B689B6D1022B7
:1025E800134000D022E13B69002B00D01EE17B683C
:1025F8009B6DA14A134002221A437B689A657B6847
:102608001B681800FFF714FF031E00D0ADE07B68BD
:102618009A687B681B7E9B031A437B685B7EDB039F
:102628001A437B689B7E5B031A437B681B6B002BFA
:1026380002D080235B0100E000231A437B68DB683B
:102648001A437B681B69002B04DA7B681B695B00F3
:102658005B0801E080239B031A437B682C215B5CA9
:102668005B001343BA691343BB617B6820229B5C00
:10267800012B15D17B689B7E002B05D1BB6980227D
:1026880052021343BB610BE07B689B6D20221A4307
:102698007B689A657B68DB6D01221A437B68DA6583
:1026A8007B685B6A002B0AD07B685A6AE0235B0070
:1026B8001A407B689B6A1343BA691343BB617B6802
:1026C8001B68DB686D4A134019007B681B68BA6990
:1026D8000A43DA607B685B689B0F9A077B68DB6C50
:1026E80013437A6913437B617B683C229B5C012B13
:1026F80011D17B685B689B0F9A077B681B6C1A4338
:102708007B685B6C1A437B689B6C1A437B69134339
:10271800012213437B617B681B681B69584A13407D
:1027280019007B681B687A690A431A617B685A68D2
:10273800C0231B069A4218D07B685A688023DB05A1
:102748009A4212D07B685A6880231B069A420CD0A2
:102758004C4B1B684C4A134019007B685A68F0239D
:102768009B031A40474B0A431A607B6818687B68CA
:102778005B6B1A000021FFF75AFD7B6818687B68BD
:102788009B6B42491A00FFF752FD7B681B69002BBF
:1027980009D17B681B689A6A7B681B6810214942CB
:1027A8000A439A6218E07B681A6980239B039A425D
:1027B80012D17B681B689B6A7B68DB69013B9B00C5
:1027C8001C221340102252429A4011007B681A6E54
:1027D8007B681B680A439A627B681B6800211800A3
:1027E800FFF742FD02007B685B6B9A420BD17B6866
:1027F8000022DA657B689B6D0322934301221A430A
:102808007B689A651CE07B689B6D122293431022BB
:102818001A437B689A657B68DB6D01221A437B68E3
:10282800DA651F23FB1801221A7009E07B689B6D8B
:1028380010221A437B689A651F23FB1801221A701D
:102848001F23FB181B781800BD4608B080BDC04682
:10285800850F0008E92B0008F92B0008A50F0008D0
:102868005136000861360008713600088D0E0008E0
:1028780000000020400D0300FDFEFFFF0102DEFF07
:1028880002FCFF1F08270140FFFFC3FF04FFFF07EB
:10289800B0B584B000AF78607B68002B01D101230C
:1028A8008CE07B689B6D02221A437B689A650F2532
:1028B8007C197B68180000F07BFB030023707B19F0
:1028C8001B78002B12D17C197B68180000F038FCAB
:1028D800030023707B191B78002B02D17B6801222F
:1028E8009A657B681B681800FFF75AFD7B681B68B0
:1028F8005A687B681B6833490A405A607B681B68C2
:10290800314A1A607B681B68DA687B681B682F4944
:102918000A40DA607B681B685A697B681B68072174
:102928008A435A617B681B689B6A7B681B68002224
:102938009A627B681B681A6A7B681B6824490A408C
:102948001A627B681B685A6A7B681B6820490A40C0
:102958005A627B681B68DA6A7B681B681C490A40F4
:10296800DA627B681B681A697B681B6892009208A8
:102978001A61184B1A68174B17490A401A607B6886
:1029880084229B58002B03D17B688421134A5A5018
:102998007B6884229B587A68100098477B680022DD
:1029A8001A667B680022DA657B6800229A657B6874
:1029B8005422002199540F23FB181B781800BD4698
:1029C80004B0B0BD60FCFFFF9F03000000021E833F
:1029D80000F000F008270140FFFF03FEED0F00089C
:1029E800B0B586B000AFF860B9607A60FB681B6864
:1029F8001800FFF763FD031E6CD1FB6854229B5C33
:102A0800012B01D102236CE0FB6854220121995467
:102A1800FB681B68DB680122134013D1FB681B6845
:102A28001800FFF705FD031E04D0FB681B6818009B
:102A3800FFF7ECFCFB681B68DA68FB681B68012180
:102A48000A43DA6017257C19FB68180000F0F2FACF
:102A5800030023702C003B191B78002B3ED1FB6828
:102A68009B6D224A1340802252001A43FB689A65E4
:102A7800FB680022DA65FB681B6D1D4ADA62FB6899
:102A88001B6D1C4A1A63FB681B6D1B4A5A63FB6863
:102A98001B681C221A60FB68542200219954FB68A9
:102AA8001B685A68FB681B6810210A435A60FB6858
:102AB800186DFB681B6840331900BA683C197B68BD
:102AC80000F0ECFF03002370FB681B681800FFF799
:102AD800D1FC03E01723FB1802221A701723FB18F6
:102AE8001B781800BD4606B0B0BDC046FEF0FFFF1B
:102AF80005320008D1320008F1320008B0B584B0C0
:102B080000AF78607B6854229B5C012B01D10223C3
:102B18005FE07B685422012199540F257C197B685A
:102B2800180000F045FA0300237029007B181B7871
:102B3800002B47D17B681B6D25229B5CDBB2022BE7
:102B480012D17B681B6D0D007C18180001F02CF861
:102B5800030023707B191B78002B05D07B689B6DC5
:102B680040221A437B689A657B681B685A687B68B1
:102B78001B6810218A435A600F22BB181B78002B50
:102B880007D1BC187B68180000F0DAFA030023703C
:102B980003E07B68180000F0D3FA0F23FB181B78BA
:102BA800002B07D17B689B6D0C4A134001221A4306
:102BB8007B689A657B681B68DA687B681B680121FB
:102BC8008A43DA607B685422002199540F23FB184A
:102BD8001B781800BD4604B0B0BDC046FEFEFFFF1E
:102BE80080B582B000AF7860C046BD4602B080BDF7
:102BF80080B582B000AF7860C046BD4602B080BDE7
:102C080080B586B000AF786039601723FB180022C2
:102C18001A700023FB607B6854229B5C012B01D156
:102C28000223C0E17B685422012199547B681B6808
:102C38001800FFF743FC031E00D0A3E13B685B6864
:102C4800022B00D143E17B681A6980231B069A4254
:102C580004D07B681B69C14A934208D17B681A6813
:102C68003B681B6819001000FFF746FBC9E07B684A
:102C78001A6E3B685B681F210B400F2199400B00BF
:102C8800DB43134019003B681B685B035B0B05D1F2
:102C98003B681B689B0E1F22134098E03B681B682B
:102CA8000122134000D091E03B681B6802221340C8
:102CB80000D089E03B681B680422134000D081E003
:102CC8003B681B680822134000D079E03B681B680A
:102CD8001022134000D071E03B681B68202213408B
:102CE80000D069E03B681B684022134000D061E0D7
:102CF8003B681B688022134000D059E03B681A6883
:102D080080235B00134051D13B681A6880239B00E5
:102D1800134049D13B681A688023DB00134041D136
:102D28003B681A6880231B01134039D13B681A6835
:102D380080235B01134031D13B681A6880239B01D3
:102D4800134029D13B681A688023DB01134021D145
:102D58003B681A6880231B02134019D13B681A6824
:102D680080235B02134011D13B681A6880239B02C1
:102D7800134009D13B681A688023DB02134001D055
:102D8800122324E0002322E0112320E010231EE078
:102D98000F231CE00E231AE00D2318E00C2316E085
:102DA8000B2314E00A2312E0092310E008230EE0A5
:102DB80007230CE006230AE0052308E0042306E0C5
:102DC800032304E0022302E0012300E000233A6821
:102DD80052681F20024093400A001A437B681A6613
:102DE8003B685B689B085A1C7B68DB699A4208D879
:102DF8007B6818683B6859683B681B681A00FFF7CE
:102E08005BFA7B6818683B6819683B689B681A001E
:102E1800FFF796FA3B681B68002B00DBBCE0504BC1
:102E28001800FFF7F7F903003B613B681B684D4A40
:102E3800934222D13A6980231B0413401DD13B6978
:102E4800802212041343464A19001000FFF7CEF9F6
:102E5800454B1B6845491800FDF74EF903005A1CFD
:102E680013005B009B189B00FB6002E0FB68013BC2
:102E7800FB60FB68002BF9D18EE03B681B683C4A7D
:102E880093420ED13A6980235B04134009D13B6910
:102E9800802252041343324A19001000FFF7A6F9A2
:102EA8007AE03B681B68334A934200D074E03A6981
:102EB8008023DB03134000D06EE03B698022D203FD
:102EC8001343274A19001000FFF790F964E07B6864
:102ED8001A6980231B069A4204D07B681B691F4A23
:102EE800934207D17B681A683B681B681900100079
:102EF800FFF713FA3B681B68002B4DDA184B1800D4
:102F0800FFF788F903003B613B681B68154A934249
:102F180008D13B69184A1340114A19001000FFF7FD
:102F280065F939E03B681B68114A934208D13B694F
:102F3800124A13400A4A19001000FFF757F92BE00C
:102F48003B681B680B4A934226D13B690C4A1340E5
:102F5800034A19001000FFF749F91DE0040000803A
:102F680008270140001000B000000020400D0300B9
:102F7800004000B8002000B4FFFF7FFFFFFFFFFE06
:102F8800FFFFBFFF7B689B6D20221A437B689A6511
:102F98001723FB1801221A707B68542200219954C8
:102FA8001723FB181B781800BD4606B080BDC04625
:102FB80080B584B000AF78607B681B681800FFF7A5
:102FC8007DFA031E31D07B681B681800FFF741FAB1
:102FD800031E04D17B681B681800FFF75DFAFFF732
:102FE800D7F80300FB601AE0FFF7D2F80200FB688D
:102FF800D31A022B13D97B681B689B6804221340E1
:103008000DD07B689B6D10221A437B689A657B689C
:10301800DB6D01221A437B68DA65012306E07B68D1
:103028001B689B6804221340DED100231800BD46AC
:1030380004B080BD80B584B000AF78600023BB6069
:103048007B681B681800FFF7F3F9031E00D069E0DE
:103058007B681B689B68364A13400DD07B689B6D64
:1030680010221A437B689A657B68DB6D01221A433C
:103078007B68DA65012356E07B681B681800FFF758
:10308800B3F92C4B1800FFF7C5F8020080231B0486
:1030980013400FD0284B1B6828491800FDF72CF85F
:1030A80003000133BB6002E0BB68013BBB60BB6847
:1030B800002BF9D17B685B7E012B33D0FFF768F8D2
:1030C8000300FB6027E07B681B681800FFF7B0F976
:1030D800031E04D17B681B681800FFF785F9FFF70A
:1030E80057F80200FB68D31A022B14D97B681B68B7
:1030F8001B6801221340012B0DD07B689B6D1022A9
:103108001A437B689A657B68DB6D01221A437B68EA
:10311800DA65012307E07B681B681B6801221340FE
:10312800012BD0D100231800BD4604B080BDC04695
:10313800170000800827014000000020400D030010
:1031480080B584B000AF78607B681B681800FFF713
:1031580080F90300FB607B681B681800FFF768F9BB
:10316800031E46D0FB68002B43D17B681B689B6815
:1031780005221340012B0DD17B681B681800FFF74F
:1031880045F97B681B6803221A60FFF701F8030002
:10319800BB6028E07B689B6D10221A437B689A65A8
:1031A8007B68DB6D01221A437B68DA65012321E025
:1031B800FEF7EEFF0200BB68D31A022B13D97B6817
:1031C8001B689B68012213400DD07B689B6D102201
:1031D8001A437B689A657B68DB6D01221A437B681A
:1031E800DA65012306E07B681B689B6801221340AF
:1031F800DED100231800BD4604B080BD80B584B080
:1032080000AF78607B689B6AFB60FB689B6D50220F
:10321800134042D1FB689B6D802292001A43FB68E1
:103228009A65FB681B681800FFF735F8031E2ED057
:10323800FB689B7E002B2AD1FB681B681B68082251
:103248001340082B23D1FB681B681800FFF736F9D9
:10325800031E10D1FB681B685A68FB681B680C21A9
:103268008A435A60FB689B6D164A134001221A4331
:10327800FB689A650BE0FB689B6D20221A43FB688C
:103288009A65FB68DB6D01221A43FB68DA65FB6807
:103298005B6EFA681000984710E0FB689B6D10227F
:1032A800134005D0FB681B6FFA681000984705E0CB
:1032B800FB681B6D5B6B7A6810009847C046BD467B
:1032C80004B080BDFEFEFFFF80B584B000AF78601B
:1032D8007B689B6AFB60FB689B6EFA6810009847E6
:1032E800C046BD4604B080BD80B584B000AF7860EC
:1032F8007B689B6AFB60FB689B6D40221A43FB68F6
:103308009A65FB68DB6D04221A43FB68DA65FB6883
:103318001B6FFA6810009847C046BD4604B080BDD0
:1033280080B582B000AF78607B681A68F0239B0391
:1033380013401800BD4602B080BD80B582B000AF12
:1033480078607B681B699B0F9B071800BD4602B01D
:1033580080BD80B582B000AF786039607B68B422E8
:103368009B587F2293431A003B681A437B68B42119
:103378005A50C046BD4602B080BD80B582B000AF8D
:1033880078607B68B4229B587F2213401800BD46A2
:1033980002B080BD80B582B000AF78607B689B6862
:1033A800044A134001221A437B689A60C046BD460E
:1033B80002B080BDE8FFFF7F80B582B000AF7860C3
:1033C8007B689B68044A134002221A437B689A6010
:1033D800C046BD4602B080BDE8FFFF7F80B582B021
:1033E80000AF78607B689B6801221340012B01D1F4
:1033F800012300E000231800BD4602B080BD000094
:1034080080B582B000AF78607B689B68054A13403E
:10341800802212061A437B689A60C046BD4602B0F5
:1034280080BDC046E8FFFF7F80B582B000AF7860FE
:103438007B689B68DB0FDA0780231B069A4201D161
:10344800012300E000231800BD4602B080BD000043
:1034580090B58BB000AF78600023FB6000233B621F
:103468007B6854229B5C012B01D10223DDE07B6841
:103478005422012199541F23FC187B681800FFF778
:103488005FFE030023707B681B681800FFF7A6FF28
:10349800031E00D0BCE07B689B6D664A1340022285
:1034A8001A437B689A657B681B68DB68624A13402D
:1034B800BB617B681B68DA687B681B685F490A40E8
:1034C800DA6000237B622DE07B681B681800FFF739
:1034D80097FF14E0FB680133FB60FB68584A93428E
:1034E8000DD97B689B6D1222934310221A437B6887
:1034F8009A657B68542200219954012395E07B68E2
:103508001B681800FFF790FF031EE3D17B681B6858
:103518001800FFF732FF02003B6A9B183B627B6A88
:1035280001337B627B6A072BCED9796A386AFCF74C
:10353800E3FD03003B627B681B681800FFF72AFF66
:103548007B681B681800FFF7F8FE031E1BD13D4B74
:103558001800FFF7E5FE03007B617A69E0235B034F
:103568009A4210D37B699B0C033B01229A401300BB
:10357800BB60BB685B08BB6002E0BB68013BBB602B
:10358800BB68002BF9D17B681B683A6A11001800E8
:10359800FFF7DFFE7B681B681800FFF70DFFFEF7DB
:1035A800F7FD03003B611BE0FEF7F2FD02003B69FB
:1035B800D31A022B14D97B681B681800FFF70EFF7B
:1035C800031E0DD07B689B6D10221A437B689A6599
:1035D8007B68DB6D01221A437B68DA65012324E0EE
:1035E8007B681B681800FFF7F9FE031EDCD17B68B7
:1035F8001B68D9687B681B68BA690A43DA607B680C
:103608009B6D0322934301221A437B689A6505E068
:103618007B689B6D10221A437B689A657B685422ED
:10362800002199541F23FB181B781800BD460BB0C6
:1036380090BDC046FDFEFFFF03800000FC7FFFFF3A
:10364800FFF102000827014080B582B000AF786022
:10365800C046BD4602B080BD80B582B000AF78607C
:10366800C046BD4602B080BD80B582B000AF78606C
:10367800C046BD4602B080BD80B582B000AF020032
:10368800FB1D1A70FB1D1B787F2B09D8FB1D1B78AF
:103698001A001F231A40044B012191400A001A60A6
:1036A800C046BD4602B080BD00E100E080B582B0F2
:1036B80000AF0200FB1D1A70FB1D1B787F2B10D872
:1036C800FB1D1B781A001F231340084901229A404A
:1036D800130080228B50BFF34F8FC046BFF36F8F0C
:1036E800C046C046BD4602B080BDC04600E100E00D
:1036F80090B583B000AF02003960FB1D1A70FB1D46
:103708001B787F2B28D82F4AFB1D1B785BB29B08A0
:10371800C0339B009B58FA1D1278110003220A40FF
:10372800D200FF2191400A00D2431A4011003B68A1
:103738009B01FF221A40FB1D1B781800032303403E
:10374800DB009A401F48FB1D1B785BB29B080A43AD
:10375800C0339B001A5031E01B4AFB1D1B7819002F
:103768000F230B40083B9B0806339B00D3180433F8
:103778001B68FA1D1278110003220A40D200FF21AB
:1037880091400A00D2431A4011003B689B01FF2276
:103798001A40FB1D1B78180003230340DB009A40E6
:1037A8000948FB1D1B781C000F232340083B9B087E
:1037B8000A4306339B00C31804331A60C046BD464B
:1037C80003B090BD00E100E000ED00E080B582B0FC
:1037D80000AF78607B685A1E80235B049A4201D34D
:1037E800012310E00A4B7A68013A5A6001235B42D0
:1037F80003211800FFF77CFF054B00229A60044B59
:1038080007221A6000231800BD4602B080BDC046DA
:1038180010E000E080B584B000AFB9607A600F2195
:103828007B18021C1A70BA687B181B785BB21100EF
:103838001800FFF75DFFC046BD4604B080BD80B5E7
:1038480082B000AF0200FB1D1A70FB1D1B785BB233
:103858001800FFF711FFC046BD4602B080BD80B515
:1038680082B000AF0200FB1D1A70FB1D1B785BB213
:103878001800FFF71BFFC046BD4602B080BD80B5EB
:1038880082B000AF78607B681800FFF79FFF0300E5
:103898001800BD4602B080BD80B582B000AF786028
:1038A8007B68002B01D1012377E07B681B683D4AC8
:1038B8009446634414211800FCF71EFC03009A0088
:1038C8007B681A647B682522022199547B681B68EF
:1038D8001A687B681B6834490A401A607B681B6851
:1038E80019687B689A687B68DB681A437B681B6980
:1038F8001A437B685B691A437B689B691A437B6838
:10390800DB691A437B681B6A1A437B681B680A4396
:103918001A607B68180000F09BFA7B689A6880231D
:10392800DB019A4202D17B6800225A607B685A68A0
:103938007B685B6C3F210A401A607B689B6C7A68E5
:10394800D26C5A607B685B68002B11D07B685B681F
:10395800042B0DD87B68180000F0A6FA7B681B6D55
:1039680000221A607B685B6D7A68926D5A6008E085
:103978007B6800221A657B6800225A657B680022F2
:103988009A657B680022DA637B68252201219954B5
:103998007B6824220021995400231800BD4602B0F8
:1039A80080BDC046F8FFFDBF0F80FFFF80B582B025
:1039B80000AF78607B68002B01D1012366E07B684B
:1039C8001B681A687B681B6801218A431A607B6838
:1039D8001B68304A9446634414211800FCF78CFB9A
:1039E80003009A007B681A647B681B6800221A60CF
:1039F800294B59687B681B6C1C22134001229A4092
:103A0800254B0A435A607B68180000F021FA7B684E
:103A18005B6C00221A607B689B6C7A68D26C5A6077
:103A28007B685B68002B10D07B685B68042B0CD824
:103A38007B68180000F038FA7B681B6D00221A605A
:103A48007B685B6D7A68926D5A607B6800221A65A4
:103A58007B6800225A657B6800229A657B68002291
:103A6800DA627B6800221A637B6800225A637B68EB
:103A780000229A637B680022DA637B682522002192
:103A880099547B6824220021995400231800BD46CC
:103A980002B080BDF8FFFDBF0000024080B586B0CF
:103AA80000AFF860B9607A603B601723FB1800220A
:103AB8001A70FB6824229B5C012B01D102236FE062
:103AC800FB68242201219954FB6825229B5CDBB208
:103AD800012B57D1FB68252202219954FB6800224B
:103AE800DA63FB681B681A68FB681B6801218A4354
:103AF8001A603B687A68B968F86800F069F9FB6889
:103B08001B6B002B08D0FB681B681A68FB681B68D6
:103B18000E210A431A600FE0FB681B681A68FB68ED
:103B28001B6804218A431A60FB681B681A68FB68D3
:103B38001B680A210A431A60FB685B6C1A688023B9
:103B48005B02134008D0FB685B6C1A68FB685B6C0F
:103B5800802149000A431A60FB681B6D002B08D0BE
:103B6800FB681B6D1A68FB681B6D802149000A43BE
:103B78001A60FB681B681A68FB681B6801210A4306
:103B88001A600AE0FB688022DA63FB6824220021BD
:103B980099541723FB1801221A701723FB181B7856
:103BA8001800BD4606B080BD80B582B000AF786011
:103BB8007B68002B01D1012350E07B6825229B5CA8
:103BC800DBB2022B08D07B680422DA637B682422EC
:103BD80000219954012341E07B681B681A687B68BF
:103BE8001B680E218A431A607B685B6C1A687B68C5
:103BF8005B6C1C490A401A607B681B681A687B6802
:103C08001B6801218A431A60174B59687B681B6C33
:103C18001C22134001229A40134B0A435A607B68C6
:103C28009B6C7A68D26C5A607B681B6D002B0CD039
:103C38007B681B6D1A687B681B6D0A490A401A600D
:103C48007B685B6D7A68926D5A607B6825220121DA
:103C580099547B6824220021995400231800BD46FA
:103C680002B080BDFFFEFFFF0000024080B584B0B7
:103C780000AF7860554B1B68FB607B681B681B684E
:103C8800BB607B681B6C1C22134004229A40130003
:103C9800FA68134027D0BB680422134023D07B68FE
:103CA8001B681B682022134007D17B681B681A68B1
:103CB8007B681B6804218A431A60444B59687B68F7
:103CC8001B6C1C22134004229A40404B0A435A6042
:103CD8007B681B6B002B00D173E07B681B6B7A68D9
:103CE800100098476DE07B681B6C1C221340022271
:103CF8009A401300FA6813402ED0BB680222134082
:103D08002AD07B681B681B68202213400BD17B6874
:103D18001B681A687B681B680A218A431A607B68DB
:103D2800252201219954294B59687B681B6C1C2258
:103D3800134002229A40254B0A435A607B6824228A
:103D4800002199547B68DB6A002B3AD07B68DB6AD8
:103D58007A681000984734E07B681B6C1C2213407B
:103D680008229A401300FA6813402BD0BB68082237
:103D7800134027D07B681B681A687B681B680E2174
:103D88008A431A60114B59687B681B6C1C221340CC
:103D980001229A400D4B0A435A607B680122DA637C
:103DA8007B682522012199547B682422002199549B
:103DB8007B685B6B002B05D07B685B6B7A681000B7
:103DC8009847C046C046BD4604B080BD00000240CA
:103DD80080B584B000AFF860B9607A603B60FB687A
:103DE8009B6CFA68D26C5A60FB681B6D002B04D080
:103DF800FB685B6DFA68926D5A60144B5968FB68F2
:103E08001B6C1C22134001229A40104B0A435A6033
:103E1800FB681B683A685A60FB689B68102B08D1DE
:103E2800FB681B687A689A60FB681B68BA68DA6086
:103E380007E0FB681B68BA689A60FB681B687A68C9
:103E4800DA60C046BD4604B080BDC04600000240EE
:103E580080B584B000AF78607B681B6C9B08104A03
:103E6800944663449B001A007B685A647B681B680D
:103E78001A00FF231340083B14211800FCF73CF9F3
:103E88000300FB607B68074A9A64FB681F221340A3
:103E980001229A407B68DA64C046BD4604B080BD02
:103EA800008200108008024080B584B000AF7860BE
:103EB8007B685B683F221340FB60FB680A4A9446B4
:103EC80063449B001A007B681A657B68074A5A6539
:103ED800FB68013B0322134001229A407B689A65E4
:103EE800C046BD4604B080BD3F8200104009024074
:103EF80080B582B000AFFB1D00221A700B4B5B69C6
:103F0800002B0CDA094B0A4A9A60084B094A9A6056
:103F1800064B5B69002B02DAFB1D01221A70FB1DA0
:103F28001B781800BD4602B080BDC0460020024084
:103F380023016745AB89EFCD80B582B000AFFB1D8B
:103F480001221A700D4B5A698023DB0513400ED0ED
:103F58000A4B0B4ADA60094B0A4ADA60074B5A697E
:103F68008023DB05134002D1FB1D00221A70FB1DC4
:103F78001B781800BD4602B080BDC0460020024034
:103F88003B2A19087F6E5D4C80B584B000AF78601D
:103F9800FEF7FEF80300FB6080235B02BB600CE0C9
:103FA8007B68013309D0FEF7F3F80200FB68D31AE7
:103FB8007A689A4201D8032328E0164B1B69BA682D
:103FC8001340EDD1134B1B69134A1340BB60114BCF
:103FD800124A1A61BB68002B11D0114BBA685A609B
:103FE800012313E07B68013309D0FEF7D1F8020002
:103FF800FB68D31A7A689A4201D8032306E0054B76
:104008001A698023DB021340ECD100231800BD4657
:1040180004B080BD00200240FA830000FB8300004A
:10402800B0010020B0B584B000AF78603C4B1B787D
:10403800012B01D102236EE0394B01221A70384B53
:1040480000225A607B681B680122134008D07B68F5
:1040580058687B6899687B68DB681A0000F08AF802
:104068007B681B6806221340062B09D17B685869B8
:104078007B6899697B681B691A0000F0C1F821E028
:104088007B681B68022213400BD000F0EFF8030096
:10409800BB607B681A69B968BB68180000F0B0F8A3
:1040A80010E07B681B68042213400BD000F0C6F8B0
:1040B8000300BB607B6858697B689B69BA68190014
:1040C80000F09EF80F257C19FA239B001800FFF7D3
:1040D8005BFF0300237028003B181B78002B14D1CA
:1040E800104B5A690F4B802189020A435A613C18C8
:1040F800FA239B001800FFF747FF03002370094BC2
:104108005A69084B08490A405A61054B00221A703F
:104118000F23FB181B781800BD4604B0B0BDC0467D
:10412800B001002000200240FFFFFDFF80B582B0F3
:1041380000AF78607B6807221A607B6858687B68E4
:10414800083319007B680C331A0000F02FF800F0D0
:1041580075F802007B681A6100F088F802007B6835
:104168009A617B68024A5A61C046BD4602B080BD6A
:1041780000604F0780B584B000AFF860B9607A601E
:10418800FB68012B06D17B681904074BBA680A4300
:10419800DA6205E07B681904034BBA680A431A63BC
:1041A800C046BD4604B080BD0020024080B584B042
:1041B80000AFF860B9607A60FB68012B0DD10F4B36
:1041C800DB6A1F221A40BB681A600C4BDB6A1B0CA7
:1041D8001F221A407B681A600CE0084B1B6B1F22D9
:1041E8001A40BB681A60054B1B6B1B0C1F221A4038
:1041F8007B681A60C046BD4604B080BD00200240FE
:1042080080B586B000AFF860B9607A600A4B1B6A67
:104218007B61FB68FF221343DA437B6913407B61B0
:104228007A69BB681A431100034B7A680A431A6219
:10423800C046BD4606B080BD0020024080B582B0B1
:1042480000AF094B1B6AFF2213407B607B68AA2BD7
:1042580004D07B68CC2B01D0BB2300E07B6818001E
:10426800BD4602B080BDC0460020024080B582B085
:1042780000AF054B1B6A054A13407B607B6818003A
:10428800BD4602B080BDC0460020024000604F0716
:1042980080B586B000AF7860396000237B6147E164
:1042A8003B681B6801217A6991400A001340FB6052
:1042B800FB68002B00D138E13B685B6803221340A0
:1042C800012B05D03B685B6803221340022B30D1D9
:1042D8007B689B683B617B695B0003229A40130003
:1042E800DA433B6913403B613B68DA687B695B00F2
:1042F8009A4013003A6913433B617B683A699A60B4
:104308007B685B683B6101227B699A401300DA4352
:104318003B6913403B613B685B681B0901221A40FB
:104328007B699A4013003A6913433B617B683A6999
:104338005A603B685B6803221340032B17D07B68E5
:10434800DB683B617B695B0003229A401300DA4318
:104358003B6913403B613B689A687B695B009A4004
:1043680013003A6913433B617B683A69DA603B683A
:104378005B6803221340022B23D17B69DA087B6830
:1043880008329200D3583B617B69072213409B0097
:104398000F229A401300DA433B6913403B613B68A4
:1043A8001A697B6907210B409B009A4013003A6900
:1043B80013433B617B69DA087B68083292003969EC
:1043C800D1507B681B683B617B695B0003229A4084
:1043D8001300DA433B6913403B613B685B68032287
:1043E8001A407B695B009A4013003A6913433B61AA
:1043F8007B683A691A603B685A68C0239B0213407D
:1044080000D192E0504A7B699B0818339B009B5867
:104418003B617B6903221340DB000F229A401300A3
:10442800DA433B6913403B617A68A023DB059A4273
:1044380013D07B68454A93420DD07B68444A934227
:1044480007D07B68434A934201D1032306E0052342
:1044580004E0022302E0012300E000237A6903213B
:104468000A40D20093403A6913433B6136497B695D
:104478009B0818339B003A695A50334B1B683B61C1
:10448800FB68DA433B6913403B613B685A68802309
:104498005B03134003D03A69FB6813433B612A4B23
:1044A8003A691A60284B5B683B61FB68DA433B69F1
:1044B80013403B613B685A6880239B03134003D039
:1044C8003A69FB6813433B611F4B3A695A601E4ABD
:1044D8008423D3583B61FB68DA433B6913403B6153
:1044E8003B685A6880239B02134003D03A69FB68F3
:1044F80013433B61144984223B698B50124A802341
:10450800D3583B61FB68DA433B6913403B613B6826
:104518005A6880235B02134003D03A69FB6813434F
:104528003B61094980223B698B507B6901337B6180
:104538003B681A687B69DA40131E00D0B0E6C046B3
:10454800C046BD4606B080BD0018024000040050B9
:1045580000080050000C005080B586B000AF7860AD
:10456800396000237B61B4E001227B699A403B6893
:1045780013403B613B69002B00D1A7E05A4A7B6995
:104588009B0818339B009B58FB607B6903221340F0
:10459800DB000F229A40FB681340FB607A68A02377
:1045A800DB059A4213D07B68504A93420DD07B6852
:1045B8004F4A934207D07B684E4A934201D1032366
:1045C80006E0052304E0022302E0012300E00023C3
:1045D8007A6903210A40D2009340FA689A4236D198
:1045E800414A8023D3583A69D2433F491340802235
:1045F8008B503D4A8423D3583A69D2433A491340F1
:1046080084228B50384B5A683B69D943364B0A4051
:104618005A60354B1A683B69D943334B0A401A60D4
:104628007B6903221340DB000F229A401300FB60D2
:104638002D4A7B699B0818339B009A58FB68D9431D
:1046480029487B699B080A4018339B001A507B68ED
:104658001A687B695B00032199400B001A437B6849
:104668001A607B69DA087B6808329200D3587A6945
:1046780007210A4092000F2191400A00D1437A692C
:10468800D20819407B6808329200D1507B689B6839
:104698007A695200032191400A00D2431A407B688C
:1046A8009A607B685B6801217A6991400A00D2436D
:1046B8001A407B685A607B68DB687A69520003217C
:1046C80091400A00D2431A407B68DA607B69013363
:1046D8007B613A687B69DA40131E00D044E7C04624
:1046E800C046BD4606B080BD001802400004005018
:1046F80000080050000C005080B584B000AF78600E
:104708000A00BB1C1A807B681B69BA1C12881340FC
:1047180004D00F23FB1801221A7003E00F23FB18A3
:1047280000221A700F23FB181B781800BD4604B02E
:1047380080BD80B582B000AF786008001100BB1C56
:10474800021C1A807B1C0A1C1A707B1C1B78002B0D
:1047580004D0BB1C1A887B689A6103E0BB1C1A88CA
:104768007B689A62C046BD4602B080BD80B584B001
:1047780000AF78600A00BB1C1A807B685B69FB602D
:10478800BB1C1B88FA6813401A04FB68DB43B91C7E
:1047980009880B401A437B689A61C046BD4604B03D
:1047A80080BD000080B584B000AF78607B68002BC6
:1047B80001D101233DE07B681B68204A1A607B68B1
:1047C8001B681F4A1A607B681B687A6852685A60BF
:1047D8007B681B687A6892689A60FDF7D9FC0300C9
:1047E800FB600EE0FDF7D4FC0200FB68D31A312B06
:1047F80007D97B681B68DB680722134001D00323B5
:1048080017E07B681B68DB6807221340EAD17B68E6
:104818001B681A697B68DB689A4205D07B681B684D
:104828007A68D2681A6103E07B681B68054A1A60D7
:1048380000231800BD4604B080BDC046CCCC0000A3
:1048480055550000AAAA000080B582B000AF786074
:104858007B681B68034A1A6000231800BD4602B033
:1048680080BDC046AAAA000080B584B000AF7860B9
:10487800194B1B68194A13401900174B7A680A43E9
:104888001A607A6880239B009A421FD1144B1A68D9
:1048980013005B009B185B0012491800FBF72CFC07
:1048A80003000133FB6008E0FB68002B03D0FB68C2
:1048B800013BFB6001E0032309E0074B5A698023B1
:1048C800DB001A408023DB009A42EDD00023180059
:1048D800BD4604B080BDC04600700040FFF9FFFF30
:1048E8000000002040420F0080B588B000AF78601B
:1048F8007B68002B01D10123F3E27B681B6801224E
:10490800134000D17CE0C34B9B6838221340BB6145
:10491800C04BDB68032213407B61BB69102B02D1BB
:104928007B69032B02D0BB69082B0BD1B94B1A68E2
:1049380080239B02134062D07B685B68002B5ED1AA
:104948000123CEE27B685A6880235B029A4207D132
:10495800B04B1A68AF4B802149020A431A6020E025
:104968007B685A68A023DB029A420ED1A94B1A68C9
:10497800A84B8021C9020A431A60A64B1A68A54BA6
:10498800802149020A431A600BE0A24B1A68A14B26
:10499800A1490A401A609F4B1A689E4B9F490A40DA
:1049A8001A607B685B68002B14D0FDF7F1FB0300ED
:1049B8003B6108E0FDF7ECFB02003B69D31A642B6E
:1049C80001D903238DE2934B1A6880239B0213407D
:1049D800F0D015E0FDF7DCFB03003B6108E0FDF7D4
:1049E800D7FB02003B69D31A642B01D9032378E271
:1049F800884B1A6880239B021340F0D100E0C04620
:104A08007B681B680222134000D199E0814B9B68A8
:104A180038221340BB617F4BDB68032213407B6164
:104A2800BB69102B02D17B69022B02D0BB69002B1A
:104A380035D1784B1A688023DB00134005D07B689A
:104A4800DB68002B01D101234BE2724B5B68744A8F
:104A5800134019007B685B691A026E4B0A435A605F
:104A6800BB69002B12D16B4B1B686E4A13401900AF
:104A78007B681A69674B0A431A60664B1B68DB0A36
:104A880007221340684ADA40684B1A60684B1B6873
:104A98001800FDF721FB031E51D0012321E27B689A
:104AA800DB68002B30D05B4B1B685E4A1340190053
:104AB8007B681A69574B0A431A60564B1A68554B5C
:104AC800802149000A431A60FDF762FB03003B613D
:104AD80008E0FDF75DFB02003B69D31A022B01D900
:104AE8000323FEE14B4B1A688023DB001340F0D010
:104AF800484B5B684A4A134019007B685B691A0295
:104B0800444B0A435A601BE0424B1A68414B4949DF
:104B18000A401A60FDF73CFB03003B6108E0FDF723
:104B280037FB02003B69D31A022B01D90323D8E1D2
:104B3800384B1A688023DB001340F0D100E0C046F0
:104B48007B681B680822134047D0324B9B68382289
:104B58001340182B0AD12F4B1B6E022213403CD056
:104B68007B689B69002B38D10123BAE17B689B697C
:104B7800002B19D0274B1A6E264B01210A431A66BF
:104B8800FDF706FB03003B6108E0FDF701FB0200AF
:104B98003B69D31A022B01D90323A2E11D4B1B6EDB
:104BA80002221340F1D018E01A4B1A6E194B01215A
:104BB8008A431A66FDF7ECFA03003B6108E0FDF74B
:104BC800E7FA02003B69D31A022B01D9032388E1D3
:104BD800104B1B6E02221340F1D17B681B68042224
:104BE800134000D1C6E01F23FB1800221A70094B9E
:104BF8009B6838221340202B1ED1064BDB6D022206
:104C0800134000D1B6E07B689B68002B00D0B1E070
:104C1800012366E100100240FFFFFEFFFFFFFBFFDC
:104C2800FF80FFFFFFC7FFFF0024F4000000002003
:104C380004000020FFFEFFFFAC4BDA6B80235B050E
:104C4800134001D1012300E00023002B11D0A74B12
:104C5800DA6BA64B802149050A43DA63A34BDA6B6A
:104C680080235B051340FB60FB681F23FB180122B0
:104C78001A709F4B1A6880235B0013401AD19C4B13
:104C88001A689B4B802149000A431A60FDF780FA95
:104C980003003B6108E0FDF77BFA02003B69D31A89
:104CA800022B01D903231CE1914B1A6880235B0076
:104CB8001340F0D07B689B68012B06D18B4BDA6DD3
:104CC8008A4B01210A43DA651CE07B689B68052B47
:104CD8000CD1864BDA6D854B04210A43DA65834B88
:104CE800DA6D824B01210A43DA650BE07F4BDA6DFE
:104CF8007E4B01218A43DA657C4BDA6D7B4B0421BC
:104D08008A43DA657B689B68002B14D0FDF740FA6C
:104D180003003B6109E0FDF73BFA02003B69D31A47
:104D2800744A934201D90323DBE0704BDB6D022206
:104D38001340F0D013E0FDF72BFA03003B6109E0C4
:104D4800FDF726FA02003B69D31A6A4A934201D951
:104D58000323C6E0654BDB6D02221340F0D11F230D
:104D6800FB181B78012B05D1604BDA6B5F4B62494E
:104D78000A40DA637B68DB69002B00D1B0E05B4B4B
:104D88009B6838221340102B00D178E07B68DB69E0
:104D9800022B53D1554B1A68544B58490A401A6094
:104DA800FDF7F6F903003B6108E0FDF7F1F90200B1
:104DB8003B69D31A022B01D9032392E04B4B1A68A3
:104DC80080239B041340F0D1484BDB684C4A1340C6
:104DD80019007B681A6A7B685B6A1A437B689B6A5E
:104DE8001B021A437B68DB6A1A437B681B6B1A43F6
:104DF8003E4B0A43DA603D4B1A683C4B802149041C
:104E08000A431A60394BDA68384B802149050A434E
:104E1800DA60FDF7BDF903003B6108E0FDF7B8F97A
:104E280002003B69D31A022B01D9032359E02F4B07
:104E38001A6880239B041340F0D051E02B4B1A686A
:104E48002A4B2E490A401A60FDF7A2F903003B617C
:104E580008E0FDF79DF902003B69D31A022B01D93E
:104E680003233EE0214B1A6880239B041340F0D1B2
:104E78001E4BDA681D4B23490A40DA6030E07B6834
:104E8800DB69012B01D101232BE0184BDB687B6127
:104E98007B6903221A407B681B6A9A421ED17B6990
:104EA80070221A407B685B6A9A4217D17A69FE239E
:104EB800DB011A407B689B6A1B029A420ED17A6911
:104EC800F8239B031A407B68DB6A9A4206D17B6908
:104ED8005B0F5A077B681B6B9A4201D0012300E0E5
:104EE80000231800BD4608B080BDC046001002402F
:104EF8000070004088130000FFFFFFEFFFFFFFFE78
:104F08008C80C11FFCFFFEEF80B584B000AF7860D5
:104F180039607B68002B01D10123E9E0764B1B68DF
:104F2800072213403A689A421ED9734B1B6807221E
:104F380093431900704B3A680A431A60FDF728F941
:104F48000300FB6009E0FDF723F90200FB68D31AB0
:104F58006A4A934201D90323CAE0674B1B680722B8
:104F680013403A689A42EED17B681B6802221340CC
:104F780015D07B681B680422134006D0604B9A68E2
:104F88005F4BE021C9010A439A605D4B9B685D4A0B
:104F9800134019007B689A68594B0A439A607B68EA
:104FA8001B680122134057D07B685B68012B07D12F
:104FB800534B1A6880239B0213402BD1012397E09F
:104FC8007B685B68022B07D14D4B1A6880239B04D2
:104FD80013401FD101238BE07B685B68002B07D14E
:104FE800474B1A688023DB00134013D101237FE06D
:104FF8007B685B68032B06D1414B1B6E0222134072
:1050080008D1012374E03E4BDB6D0222134001D12D
:1050180001236DE03A4B9B680722934319007B6894
:105028005A68374B0A439A60FDF7B2F80300FB60F1
:1050380009E0FDF7ADF80200FB68D31A2F4A934246
:1050480001D9032354E02E4B9B6838221A407B6811
:105058005B68DB009A42ECD1274B1B6807221340A0
:105068003A689A421ED2244B1B68072293431900C0
:10507800214B3A680A431A60FDF78AF80300FB607F
:1050880009E0FDF785F80200FB68D31A1B4A934232
:1050980001D903232CE0184B1B68072213403A68F8
:1050A8009A42EED17B681B680422134009D0144B46
:1050B8009B68154A134019007B68DA68104B0A434D
:1050C8009A6000F029F801000D4B9B681B0A0F221B
:1050D8001A400E4B9200D3581F2213400A00DA40A0
:1050E8000B4B1A600B4B1B681800FCF7F5FF03000D
:1050F8001800BD4604B080BD00200240881300009F
:1051080000100240FFF0FFFFFF8FFFFFEC62000876
:10511800000000200400002080B586B000AF3C4BA2
:105128009B68382213400FD1394B1B68DB0A0722D2
:10513800134001229A4013003B6039683548FAF75A
:10514800DBFF03003B615DE0314B9B683822134075
:10515800082B02D1304B3B6154E02D4B9B68382221
:105168001340102B38D12A4BDB6803221340FB6015
:10517800274BDB681B09072213400133BB60FB6820
:10518800032B0DD1B9682448FAF7B6FF03001900BC
:105198001F4BDB681B0A7F2213404B437B610DE0EA
:1051A800B9681C48FAF7A8FF03001900184BDB6818
:1051B8001B0A7F2213404B437B61C046144BDB68BC
:1051C8005B0F0722134001337B6079687869FAF72F
:1051D80093FF03003B6115E00D4B9B683822134099
:1051E800202B03D180231B023B610BE0084B9B68FB
:1051F80038221340182B03D1FA23DB013B6101E06D
:1052080000233B613B691800BD4606B080BDC0461F
:10521800001002400024F40000127A0080B582B029
:1052280000AF78607B68002B01D101234AE07B68DE
:105238003D229B5CDBB2002B07D17B683C2200211E
:1052480099547B681800FBF7F5FE7B683D22022124
:1052580099547B681A687B6804331900100000F0C1
:10526800B7FA7B684822012199547B683E220121C4
:1052780099547B683F22012199547B68402201217F
:1052880099547B684122012199547B68422201216B
:1052980099547B684322012199547B684422012157
:1052A80099547B684522012199547B684622012143
:1052B80099547B684722012199547B683D2201213A
:1052C800995400231800BD4602B080BD80B584B053
:1052D80000AF78607B683D229B5CDBB2012B01D07C
:1052E800012337E07B683D22022199547B681B68C3
:1052F800DA687B681B6801210A43DA607B681B68EF
:10530800164A934204D07B681B68154A934216D10B
:105318007B681B689B68134A1340FB60FB68062B7D
:1053280016D0FA6880235B029A4211D07B681B680A
:105338001A687B681B6801210A431A6008E07B68C9
:105348001B681A687B681B6801210A431A6000E021
:10535800C04600231800BD4604B080BD002C0140A3
:10536800000400400700010080B582B000AF7860FB
:105378007B681B68DA687B681B6801218A43DA60EE
:105388007B681B681B6A0D4A13400DD17B681B683C
:105398001B6A0B4A134007D17B681B681A687B6835
:1053A8001B6801218A431A607B683D2201219954B8
:1053B80000231800BD4602B080BDC0461111000090
:1053C8004404000080B584B000AF78607B681B6837
:1053D800DB68FB607B681B681B69BB60BB680222DB
:1053E800134021D0FB68022213401DD07B681B6844
:1053F800032252421A617B6801221A777B681B6874
:105408009B690322134004D07B68180000F0C8F998
:1054180007E07B68180000F0BBF97B68180000F013
:10542800C7F97B6800221A77BB680422134022D090
:10543800FB68042213401ED07B681B680522524279
:105448001A617B6802221A777B681B689A69C023F5
:105458009B00134004D07B68180000F0A1F907E016
:105468007B68180000F094F97B68180000F0A0F938
:105478007B6800221A77BB680822134021D0FB689A
:10548800082213401DD07B681B68092252421A610A
:105498007B6804221A777B681B68DB690322134048
:1054A80004D07B68180000F07BF907E07B681800DF
:1054B80000F06EF97B68180000F07AF97B6800222A
:1054C8001A77BB681022134022D0FB6810221340C1
:1054D8001ED07B681B68112252421A617B68082221
:1054E8001A777B681B68DA69C0239B00134004D0D5
:1054F8007B68180000F054F907E07B68180000F09A
:1055080047F97B68180000F053F97B6800221A7786
:10551800BB68012213400CD0FB680122134008D05D
:105528007B681B68022252421A617B68180000F0EF
:1055380027F9BB688022134004D1BA6880239B01F5
:1055480013400BD0FB688022134007D07B681B6890
:105558001E4A1A617B68180000F0BAFABA688023FC
:105568005B0013400BD0FB688022134007D07B6898
:105578001B68174A1A617B68180000F0B1FABB680B
:10558800402213400CD0FB684022134008D07B68AF
:105598001B68412252421A617B68180000F010F91A
:1055A800BB68202213400CD0FB682022134008D08F
:1055B8007B681B68212252421A617B68180000F040
:1055C8007FFAC046BD4604B080BDC0467FDFFFFFFE
:1055D800FFFEFFFF80B584B000AF786039600F230D
:1055E800FB1800221A707B683C229B5C012B01D1BE
:1055F8000223BCE07B683C22012199547B683D2250
:10560800022199547B681B689B68BB60BB685A4A37
:105618001340BB60BB68594A1340BB607B681B687A
:10562800BA689A603B681B6880229201934240D016
:1056380080229201934200D988E08022520193424D
:1056480000D188E080225201934200D97EE0702B7D
:1056580018D000D97AE0602B4FD000D976E0502BD3
:105668003BD000D972E0402B57D000D96EE0302BE8
:1056780063D06BD8202B60D068D8002B5DD0102B5E
:105688005BD063E07B6818683B6899683B685A6838
:105698003B68DB6800F092F97B681B689B68BB601D
:1056A800BB6877221343BB607B681B68BA689A6043
:1056B80052E07B6818683B6899683B685A683B68A1
:1056C800DB6800F07BF97B681B689A687B681B685D
:1056D8008021C9010A439A603EE07B6818683B68EC
:1056E80059683B68DB681A0000F0ECF87B681B68B7
:1056F8005021180000F046F92EE07B6818683B68D6
:1057080059683B68DB681A0000F00AF97B681B6877
:105718006021180000F036F91EE07B6818683B68C5
:1057280059683B68DB681A0000F0CCF87B681B6896
:105738004021180000F026F90EE07B681A683B68E3
:105748001B681900100000F01DF905E00F23FB1875
:1057580001221A7000E0C0467B683D22012199545D
:105768007B683C22002199540F23FB181B781800F2
:10577800BD4604B080BDC04688FFCEFFFF00FFFFD6
:1057880080B582B000AF7860C046BD4602B080BD2B
:1057980080B582B000AF7860C046BD4602B080BD1B
:1057A80080B582B000AF7860C046BD4602B080BD0B
:1057B80080B582B000AF7860C046BD4602B080BDFB
:1057C80080B582B000AF7860C046BD4602B080BDEB
:1057D80080B584B000AF786039607B681B68FB6077
:1057E8007B68324A934203D07B68314A934208D19E
:1057F800FB6870229343FB603B685B68FA6813435D
:10580800FB607B68294A93420FD07B68284A934201
:105818000BD07B68274A934207D07B68264A93427D
:1058280003D07B68254A934208D1FB68244A134079
:10583800FB603B68DB68FA681343FB60FB68802207
:1058480093431A003B685B691343FB607B68FA6803
:105858001A603B689A687B68DA623B681A687B68FA
:105868009A627B68114A934207D07B68124A934236
:1058780003D07B68114A934203D13B681A697B685D
:105888001A637B6801225A617B681B6901221340F5
:10589800012B06D17B681B69012293431A007B68A0
:1058A8001A61C046BD4604B080BDC046002C014008
:1058B800000400400020004000440140004801402E
:1058C800FFFCFFFF80B586B000AFF860B9607A6072
:1058D800FB681B6A7B61FB681B6A012293431A0001
:1058E800FB681A62FB689B693B613B69F022934342
:1058F8003B617B681B013A6913433B617B690A2260
:1059080093437B617A69BB6813437B61FB683A699F
:105918009A61FB687A691A62C046BD4606B080BDC6
:1059280080B586B000AFF860B9607A60FB681B6A22
:105938007B61FB681B6A102293431A00FB681A629A
:10594800FB689B693B613B690D4A13403B617B687F
:105958001B033A6913433B617B69A02293437B6134
:10596800BB681B017A6913437B61FB683A699A61DA
:10597800FB687A691A62C046BD4606B080BDC0465B
:10598800FF0FFFFF80B584B000AF786039607B6897
:105998009B68FB60FB68084A1340FB603A68FB6839
:1059A800134307221343FB607B68FA689A60C0467A
:1059B800BD4604B080BDC0468FFFCFFF80B586B01E
:1059C80000AFF860B9607A603B60FB689B687B61F8
:1059D8007B69094A13407B613B681A027B681A435A
:1059E800BB6813437A6913437B61FB687A699A60E1
:1059F800C046BD4606B080BDFF00FFFF80B584B03D
:105A080000AF786039607B683C229B5C012B01D138
:105A180002234AE07B683C22012199547B683D229D
:105A2800022199547B681B685B68FB607B681B6874
:105A38009B68BB607B681B681E4A934208D1FB6861
:105A48001D4A1340FB603B685B68FA681343FB60C0
:105A5800FB6870229343FB603B681B68FA6813433A
:105A6800FB607B681B68FA685A607B681B68114A90
:105A7800934204D07B681B68104A93420CD1BB68E0
:105A880080229343BB603B689B68BA681343BB6042
:105A98007B681B68BA689A607B683D22012199542B
:105AA8007B683C220021995400231800BD4604B0AD
:105AB80080BDC046002C0140FFFF0FFF00040040DE
:105AC80080B582B000AF7860C046BD4602B080BDE8
